{
	"contracts/trans.sol": {
		"OwnershipRegistry": {
			"abi": [
				{
					"inputs": [],
					"name": "productCounter",
					"outputs": [
						{
							"internalType": "uint256",
							"name": "",
							"type": "uint256"
						}
					],
					"stateMutability": "view",
					"type": "function"
				},
				{
					"inputs": [
						{
							"internalType": "uint256",
							"name": "",
							"type": "uint256"
						}
					],
					"name": "products",
					"outputs": [
						{
							"internalType": "string",
							"name": "productID",
							"type": "string"
						},
						{
							"internalType": "address",
							"name": "owner",
							"type": "address"
						},
						{
							"internalType": "uint256",
							"name": "price",
							"type": "uint256"
						}
					],
					"stateMutability": "view",
					"type": "function"
				},
				{
					"inputs": [
						{
							"internalType": "string",
							"name": "productID",
							"type": "string"
						},
						{
							"internalType": "uint256",
							"name": "price",
							"type": "uint256"
						}
					],
					"name": "registerProduct",
					"outputs": [],
					"stateMutability": "nonpayable",
					"type": "function"
				},
				{
					"inputs": [
						{
							"internalType": "uint256",
							"name": "productID",
							"type": "uint256"
						},
						{
							"internalType": "address",
							"name": "newOwner",
							"type": "address"
						}
					],
					"name": "transferOwnership",
					"outputs": [],
					"stateMutability": "nonpayable",
					"type": "function"
				}
			],
			"devdoc": {
				"kind": "dev",
				"methods": {},
				"version": 1
			},
			"evm": {
				"assembly": "    /* \"contracts/trans.sol\":107:1328  contract OwnershipRegistry {... */\n  mstore(0x40, 0x80)\n  callvalue\n  dup1\n  iszero\n  tag_1\n  jumpi\n  0x00\n  dup1\n  revert\ntag_1:\n  pop\n  dataSize(sub_0)\n  dup1\n  dataOffset(sub_0)\n  0x00\n  codecopy\n  0x00\n  return\nstop\n\nsub_0: assembly {\n        /* \"contracts/trans.sol\":107:1328  contract OwnershipRegistry {... */\n      mstore(0x40, 0x80)\n      callvalue\n      dup1\n      iszero\n      tag_1\n      jumpi\n      0x00\n      dup1\n      revert\n    tag_1:\n      pop\n      jumpi(tag_2, lt(calldatasize, 0x04))\n      shr(0xe0, calldataload(0x00))\n      dup1\n      0x1f16653b\n      eq\n      tag_3\n      jumpi\n      dup1\n      0x29507f73\n      eq\n      tag_4\n      jumpi\n      dup1\n      0x7acc0b20\n      eq\n      tag_5\n      jumpi\n      dup1\n      0x8c96091b\n      eq\n      tag_6\n      jumpi\n    tag_2:\n      0x00\n      dup1\n      revert\n        /* \"contracts/trans.sol\":472:501  uint256 public productCounter */\n    tag_3:\n      tag_7\n      tag_8\n      jump\t// in\n    tag_7:\n      mload(0x40)\n      tag_9\n      swap2\n      swap1\n      tag_10\n      jump\t// in\n    tag_9:\n      mload(0x40)\n      dup1\n      swap2\n      sub\n      swap1\n      return\n        /* \"contracts/trans.sol\":1025:1325  function transferOwnership(uint256 productID, address newOwner) public {... */\n    tag_4:\n      tag_11\n      0x04\n      dup1\n      calldatasize\n      sub\n      dup2\n      add\n      swap1\n      tag_12\n      swap2\n      swap1\n      tag_13\n      jump\t// in\n    tag_12:\n      tag_14\n      jump\t// in\n    tag_11:\n      stop\n        /* \"contracts/trans.sol\":379:422  mapping(uint256 => Product) public products */\n    tag_5:\n      tag_15\n      0x04\n      dup1\n      calldatasize\n      sub\n      dup2\n      add\n      swap1\n      tag_16\n      swap2\n      swap1\n      tag_17\n      jump\t// in\n    tag_16:\n      tag_18\n      jump\t// in\n    tag_15:\n      mload(0x40)\n      tag_19\n      swap4\n      swap3\n      swap2\n      swap1\n      tag_20\n      jump\t// in\n    tag_19:\n      mload(0x40)\n      dup1\n      swap2\n      sub\n      swap1\n      return\n        /* \"contracts/trans.sol\":600:987  function registerProduct(string memory productID, uint256 price) public {... */\n    tag_6:\n      tag_21\n      0x04\n      dup1\n      calldatasize\n      sub\n      dup2\n      add\n      swap1\n      tag_22\n      swap2\n      swap1\n      tag_23\n      jump\t// in\n    tag_22:\n      tag_24\n      jump\t// in\n    tag_21:\n      stop\n        /* \"contracts/trans.sol\":472:501  uint256 public productCounter */\n    tag_8:\n      sload(0x01)\n      dup2\n      jump\t// out\n        /* \"contracts/trans.sol\":1025:1325  function transferOwnership(uint256 productID, address newOwner) public {... */\n    tag_14:\n        /* \"contracts/trans.sol\":1144:1154  msg.sender */\n      caller\n        /* \"contracts/trans.sol\":1115:1154  products[productID].owner == msg.sender */\n      0xffffffffffffffffffffffffffffffffffffffff\n      and\n        /* \"contracts/trans.sol\":1115:1123  products */\n      0x00\n        /* \"contracts/trans.sol\":1115:1134  products[productID] */\n      dup1\n        /* \"contracts/trans.sol\":1124:1133  productID */\n      dup5\n        /* \"contracts/trans.sol\":1115:1134  products[productID] */\n      dup2\n      mstore\n      0x20\n      add\n      swap1\n      dup2\n      mstore\n      0x20\n      add\n      0x00\n      keccak256\n        /* \"contracts/trans.sol\":1115:1140  products[productID].owner */\n      0x01\n      add\n      0x00\n      swap1\n      sload\n      swap1\n      0x0100\n      exp\n      swap1\n      div\n      0xffffffffffffffffffffffffffffffffffffffff\n      and\n        /* \"contracts/trans.sol\":1115:1154  products[productID].owner == msg.sender */\n      0xffffffffffffffffffffffffffffffffffffffff\n      and\n      eq\n        /* \"contracts/trans.sol\":1107:1196  require(products[productID].owner == msg.sender, \"Only the owner can transfer ownership\") */\n      tag_26\n      jumpi\n      mload(0x40)\n      0x08c379a000000000000000000000000000000000000000000000000000000000\n      dup2\n      mstore\n      0x04\n      add\n      tag_27\n      swap1\n      tag_28\n      jump\t// in\n    tag_27:\n      mload(0x40)\n      dup1\n      swap2\n      sub\n      swap1\n      revert\n    tag_26:\n        /* \"contracts/trans.sol\":1272:1280  newOwner */\n      dup1\n        /* \"contracts/trans.sol\":1244:1252  products */\n      0x00\n        /* \"contracts/trans.sol\":1244:1263  products[productID] */\n      dup1\n        /* \"contracts/trans.sol\":1253:1262  productID */\n      dup5\n        /* \"contracts/trans.sol\":1244:1263  products[productID] */\n      dup2\n      mstore\n      0x20\n      add\n      swap1\n      dup2\n      mstore\n      0x20\n      add\n      0x00\n      keccak256\n        /* \"contracts/trans.sol\":1244:1269  products[productID].owner */\n      0x01\n      add\n      0x00\n        /* \"contracts/trans.sol\":1244:1280  products[productID].owner = newOwner */\n      0x0100\n      exp\n      dup2\n      sload\n      dup2\n      0xffffffffffffffffffffffffffffffffffffffff\n      mul\n      not\n      and\n      swap1\n      dup4\n      0xffffffffffffffffffffffffffffffffffffffff\n      and\n      mul\n      or\n      swap1\n      sstore\n      pop\n        /* \"contracts/trans.sol\":1025:1325  function transferOwnership(uint256 productID, address newOwner) public {... */\n      pop\n      pop\n      jump\t// out\n        /* \"contracts/trans.sol\":379:422  mapping(uint256 => Product) public products */\n    tag_18:\n      mstore(0x20, 0x00)\n      dup1\n      0x00\n      mstore\n      keccak256(0x00, 0x40)\n      0x00\n      swap2\n      pop\n      swap1\n      pop\n      dup1\n      0x00\n      add\n      dup1\n      sload\n      tag_29\n      swap1\n      tag_30\n      jump\t// in\n    tag_29:\n      dup1\n      0x1f\n      add\n      0x20\n      dup1\n      swap2\n      div\n      mul\n      0x20\n      add\n      mload(0x40)\n      swap1\n      dup2\n      add\n      0x40\n      mstore\n      dup1\n      swap3\n      swap2\n      swap1\n      dup2\n      dup2\n      mstore\n      0x20\n      add\n      dup3\n      dup1\n      sload\n      tag_31\n      swap1\n      tag_30\n      jump\t// in\n    tag_31:\n      dup1\n      iszero\n      tag_32\n      jumpi\n      dup1\n      0x1f\n      lt\n      tag_33\n      jumpi\n      0x0100\n      dup1\n      dup4\n      sload\n      div\n      mul\n      dup4\n      mstore\n      swap2\n      0x20\n      add\n      swap2\n      jump(tag_32)\n    tag_33:\n      dup3\n      add\n      swap2\n      swap1\n      0x00\n      mstore\n      keccak256(0x00, 0x20)\n      swap1\n    tag_34:\n      dup2\n      sload\n      dup2\n      mstore\n      swap1\n      0x01\n      add\n      swap1\n      0x20\n      add\n      dup1\n      dup4\n      gt\n      tag_34\n      jumpi\n      dup3\n      swap1\n      sub\n      0x1f\n      and\n      dup3\n      add\n      swap2\n    tag_32:\n      pop\n      pop\n      pop\n      pop\n      pop\n      swap1\n      dup1\n      0x01\n      add\n      0x00\n      swap1\n      sload\n      swap1\n      0x0100\n      exp\n      swap1\n      div\n      0xffffffffffffffffffffffffffffffffffffffff\n      and\n      swap1\n      dup1\n      0x02\n      add\n      sload\n      swap1\n      pop\n      dup4\n      jump\t// out\n        /* \"contracts/trans.sol\":600:987  function registerProduct(string memory productID, uint256 price) public {... */\n    tag_24:\n        /* \"contracts/trans.sol\":683:697  productCounter */\n      0x01\n      0x00\n        /* \"contracts/trans.sol\":683:699  productCounter++ */\n      dup2\n      sload\n      dup1\n      swap3\n      swap2\n      swap1\n      tag_36\n      swap1\n      tag_37\n      jump\t// in\n    tag_36:\n      swap2\n      swap1\n      pop\n      sstore\n      pop\n        /* \"contracts/trans.sol\":756:979  Product({ // 创建新的Product结构体并存储... */\n      mload(0x40)\n      dup1\n      0x60\n      add\n      0x40\n      mstore\n      dup1\n        /* \"contracts/trans.sol\":831:840  productID */\n      dup4\n        /* \"contracts/trans.sol\":756:979  Product({ // 创建新的Product结构体并存储... */\n      dup2\n      mstore\n      0x20\n      add\n        /* \"contracts/trans.sol\":862:872  msg.sender */\n      caller\n        /* \"contracts/trans.sol\":756:979  Product({ // 创建新的Product结构体并存储... */\n      0xffffffffffffffffffffffffffffffffffffffff\n      and\n      dup2\n      mstore\n      0x20\n      add\n        /* \"contracts/trans.sol\":940:945  price */\n      dup3\n        /* \"contracts/trans.sol\":756:979  Product({ // 创建新的Product结构体并存储... */\n      dup2\n      mstore\n      pop\n        /* \"contracts/trans.sol\":729:737  products */\n      0x00\n        /* \"contracts/trans.sol\":729:753  products[productCounter] */\n      dup1\n        /* \"contracts/trans.sol\":738:752  productCounter */\n      sload(0x01)\n        /* \"contracts/trans.sol\":729:753  products[productCounter] */\n      dup2\n      mstore\n      0x20\n      add\n      swap1\n      dup2\n      mstore\n      0x20\n      add\n      0x00\n      keccak256\n        /* \"contracts/trans.sol\":729:979  products[productCounter] = Product({ // 创建新的Product结构体并存储... */\n      0x00\n      dup3\n      add\n      mload\n      dup2\n      0x00\n      add\n      swap1\n      dup2\n      tag_38\n      swap2\n      swap1\n      tag_39\n      jump\t// in\n    tag_38:\n      pop\n      0x20\n      dup3\n      add\n      mload\n      dup2\n      0x01\n      add\n      exp(0x0100, 0x00)\n      dup2\n      sload\n      dup2\n      0xffffffffffffffffffffffffffffffffffffffff\n      mul\n      not\n      and\n      swap1\n      dup4\n      0xffffffffffffffffffffffffffffffffffffffff\n      and\n      mul\n      or\n      swap1\n      sstore\n      pop\n      0x40\n      dup3\n      add\n      mload\n      dup2\n      0x02\n      add\n      sstore\n      swap1\n      pop\n      pop\n        /* \"contracts/trans.sol\":600:987  function registerProduct(string memory productID, uint256 price) public {... */\n      pop\n      pop\n      jump\t// out\n        /* \"#utility.yul\":7:84   */\n    tag_40:\n        /* \"#utility.yul\":44:51   */\n      0x00\n        /* \"#utility.yul\":73:78   */\n      dup2\n        /* \"#utility.yul\":62:78   */\n      swap1\n      pop\n        /* \"#utility.yul\":7:84   */\n      swap2\n      swap1\n      pop\n      jump\t// out\n        /* \"#utility.yul\":90:208   */\n    tag_41:\n        /* \"#utility.yul\":177:201   */\n      tag_88\n        /* \"#utility.yul\":195:200   */\n      dup2\n        /* \"#utility.yul\":177:201   */\n      tag_40\n      jump\t// in\n    tag_88:\n        /* \"#utility.yul\":172:175   */\n      dup3\n        /* \"#utility.yul\":165:202   */\n      mstore\n        /* \"#utility.yul\":90:208   */\n      pop\n      pop\n      jump\t// out\n        /* \"#utility.yul\":214:436   */\n    tag_10:\n        /* \"#utility.yul\":307:311   */\n      0x00\n        /* \"#utility.yul\":345:347   */\n      0x20\n        /* \"#utility.yul\":334:343   */\n      dup3\n        /* \"#utility.yul\":330:348   */\n      add\n        /* \"#utility.yul\":322:348   */\n      swap1\n      pop\n        /* \"#utility.yul\":358:429   */\n      tag_90\n        /* \"#utility.yul\":426:427   */\n      0x00\n        /* \"#utility.yul\":415:424   */\n      dup4\n        /* \"#utility.yul\":411:428   */\n      add\n        /* \"#utility.yul\":402:408   */\n      dup5\n        /* \"#utility.yul\":358:429   */\n      tag_41\n      jump\t// in\n    tag_90:\n        /* \"#utility.yul\":214:436   */\n      swap3\n      swap2\n      pop\n      pop\n      jump\t// out\n        /* \"#utility.yul\":442:517   */\n    tag_42:\n        /* \"#utility.yul\":475:481   */\n      0x00\n        /* \"#utility.yul\":508:510   */\n      0x40\n        /* \"#utility.yul\":502:511   */\n      mload\n        /* \"#utility.yul\":492:511   */\n      swap1\n      pop\n        /* \"#utility.yul\":442:517   */\n      swap1\n      jump\t// out\n        /* \"#utility.yul\":523:640   */\n    tag_43:\n        /* \"#utility.yul\":632:633   */\n      0x00\n        /* \"#utility.yul\":629:630   */\n      dup1\n        /* \"#utility.yul\":622:634   */\n      revert\n        /* \"#utility.yul\":646:763   */\n    tag_44:\n        /* \"#utility.yul\":755:756   */\n      0x00\n        /* \"#utility.yul\":752:753   */\n      dup1\n        /* \"#utility.yul\":745:757   */\n      revert\n        /* \"#utility.yul\":769:891   */\n    tag_45:\n        /* \"#utility.yul\":842:866   */\n      tag_95\n        /* \"#utility.yul\":860:865   */\n      dup2\n        /* \"#utility.yul\":842:866   */\n      tag_40\n      jump\t// in\n    tag_95:\n        /* \"#utility.yul\":835:840   */\n      dup2\n        /* \"#utility.yul\":832:867   */\n      eq\n        /* \"#utility.yul\":822:885   */\n      tag_96\n      jumpi\n        /* \"#utility.yul\":881:882   */\n      0x00\n        /* \"#utility.yul\":878:879   */\n      dup1\n        /* \"#utility.yul\":871:883   */\n      revert\n        /* \"#utility.yul\":822:885   */\n    tag_96:\n        /* \"#utility.yul\":769:891   */\n      pop\n      jump\t// out\n        /* \"#utility.yul\":897:1036   */\n    tag_46:\n        /* \"#utility.yul\":943:948   */\n      0x00\n        /* \"#utility.yul\":981:987   */\n      dup2\n        /* \"#utility.yul\":968:988   */\n      calldataload\n        /* \"#utility.yul\":959:988   */\n      swap1\n      pop\n        /* \"#utility.yul\":997:1030   */\n      tag_98\n        /* \"#utility.yul\":1024:1029   */\n      dup2\n        /* \"#utility.yul\":997:1030   */\n      tag_45\n      jump\t// in\n    tag_98:\n        /* \"#utility.yul\":897:1036   */\n      swap3\n      swap2\n      pop\n      pop\n      jump\t// out\n        /* \"#utility.yul\":1042:1168   */\n    tag_47:\n        /* \"#utility.yul\":1079:1086   */\n      0x00\n        /* \"#utility.yul\":1119:1161   */\n      0xffffffffffffffffffffffffffffffffffffffff\n        /* \"#utility.yul\":1112:1117   */\n      dup3\n        /* \"#utility.yul\":1108:1162   */\n      and\n        /* \"#utility.yul\":1097:1162   */\n      swap1\n      pop\n        /* \"#utility.yul\":1042:1168   */\n      swap2\n      swap1\n      pop\n      jump\t// out\n        /* \"#utility.yul\":1174:1270   */\n    tag_48:\n        /* \"#utility.yul\":1211:1218   */\n      0x00\n        /* \"#utility.yul\":1240:1264   */\n      tag_101\n        /* \"#utility.yul\":1258:1263   */\n      dup3\n        /* \"#utility.yul\":1240:1264   */\n      tag_47\n      jump\t// in\n    tag_101:\n        /* \"#utility.yul\":1229:1264   */\n      swap1\n      pop\n        /* \"#utility.yul\":1174:1270   */\n      swap2\n      swap1\n      pop\n      jump\t// out\n        /* \"#utility.yul\":1276:1398   */\n    tag_49:\n        /* \"#utility.yul\":1349:1373   */\n      tag_103\n        /* \"#utility.yul\":1367:1372   */\n      dup2\n        /* \"#utility.yul\":1349:1373   */\n      tag_48\n      jump\t// in\n    tag_103:\n        /* \"#utility.yul\":1342:1347   */\n      dup2\n        /* \"#utility.yul\":1339:1374   */\n      eq\n        /* \"#utility.yul\":1329:1392   */\n      tag_104\n      jumpi\n        /* \"#utility.yul\":1388:1389   */\n      0x00\n        /* \"#utility.yul\":1385:1386   */\n      dup1\n        /* \"#utility.yul\":1378:1390   */\n      revert\n        /* \"#utility.yul\":1329:1392   */\n    tag_104:\n        /* \"#utility.yul\":1276:1398   */\n      pop\n      jump\t// out\n        /* \"#utility.yul\":1404:1543   */\n    tag_50:\n        /* \"#utility.yul\":1450:1455   */\n      0x00\n        /* \"#utility.yul\":1488:1494   */\n      dup2\n        /* \"#utility.yul\":1475:1495   */\n      calldataload\n        /* \"#utility.yul\":1466:1495   */\n      swap1\n      pop\n        /* \"#utility.yul\":1504:1537   */\n      tag_106\n        /* \"#utility.yul\":1531:1536   */\n      dup2\n        /* \"#utility.yul\":1504:1537   */\n      tag_49\n      jump\t// in\n    tag_106:\n        /* \"#utility.yul\":1404:1543   */\n      swap3\n      swap2\n      pop\n      pop\n      jump\t// out\n        /* \"#utility.yul\":1549:2023   */\n    tag_13:\n        /* \"#utility.yul\":1617:1623   */\n      0x00\n        /* \"#utility.yul\":1625:1631   */\n      dup1\n        /* \"#utility.yul\":1674:1676   */\n      0x40\n        /* \"#utility.yul\":1662:1671   */\n      dup4\n        /* \"#utility.yul\":1653:1660   */\n      dup6\n        /* \"#utility.yul\":1649:1672   */\n      sub\n        /* \"#utility.yul\":1645:1677   */\n      slt\n        /* \"#utility.yul\":1642:1761   */\n      iszero\n      tag_108\n      jumpi\n        /* \"#utility.yul\":1680:1759   */\n      tag_109\n      tag_43\n      jump\t// in\n    tag_109:\n        /* \"#utility.yul\":1642:1761   */\n    tag_108:\n        /* \"#utility.yul\":1800:1801   */\n      0x00\n        /* \"#utility.yul\":1825:1878   */\n      tag_110\n        /* \"#utility.yul\":1870:1877   */\n      dup6\n        /* \"#utility.yul\":1861:1867   */\n      dup3\n        /* \"#utility.yul\":1850:1859   */\n      dup7\n        /* \"#utility.yul\":1846:1868   */\n      add\n        /* \"#utility.yul\":1825:1878   */\n      tag_46\n      jump\t// in\n    tag_110:\n        /* \"#utility.yul\":1815:1878   */\n      swap3\n      pop\n        /* \"#utility.yul\":1771:1888   */\n      pop\n        /* \"#utility.yul\":1927:1929   */\n      0x20\n        /* \"#utility.yul\":1953:2006   */\n      tag_111\n        /* \"#utility.yul\":1998:2005   */\n      dup6\n        /* \"#utility.yul\":1989:1995   */\n      dup3\n        /* \"#utility.yul\":1978:1987   */\n      dup7\n        /* \"#utility.yul\":1974:1996   */\n      add\n        /* \"#utility.yul\":1953:2006   */\n      tag_50\n      jump\t// in\n    tag_111:\n        /* \"#utility.yul\":1943:2006   */\n      swap2\n      pop\n        /* \"#utility.yul\":1898:2016   */\n      pop\n        /* \"#utility.yul\":1549:2023   */\n      swap3\n      pop\n      swap3\n      swap1\n      pop\n      jump\t// out\n        /* \"#utility.yul\":2029:2358   */\n    tag_17:\n        /* \"#utility.yul\":2088:2094   */\n      0x00\n        /* \"#utility.yul\":2137:2139   */\n      0x20\n        /* \"#utility.yul\":2125:2134   */\n      dup3\n        /* \"#utility.yul\":2116:2123   */\n      dup5\n        /* \"#utility.yul\":2112:2135   */\n      sub\n        /* \"#utility.yul\":2108:2140   */\n      slt\n        /* \"#utility.yul\":2105:2224   */\n      iszero\n      tag_113\n      jumpi\n        /* \"#utility.yul\":2143:2222   */\n      tag_114\n      tag_43\n      jump\t// in\n    tag_114:\n        /* \"#utility.yul\":2105:2224   */\n    tag_113:\n        /* \"#utility.yul\":2263:2264   */\n      0x00\n        /* \"#utility.yul\":2288:2341   */\n      tag_115\n        /* \"#utility.yul\":2333:2340   */\n      dup5\n        /* \"#utility.yul\":2324:2330   */\n      dup3\n        /* \"#utility.yul\":2313:2322   */\n      dup6\n        /* \"#utility.yul\":2309:2331   */\n      add\n        /* \"#utility.yul\":2288:2341   */\n      tag_46\n      jump\t// in\n    tag_115:\n        /* \"#utility.yul\":2278:2341   */\n      swap2\n      pop\n        /* \"#utility.yul\":2234:2351   */\n      pop\n        /* \"#utility.yul\":2029:2358   */\n      swap3\n      swap2\n      pop\n      pop\n      jump\t// out\n        /* \"#utility.yul\":2364:2463   */\n    tag_51:\n        /* \"#utility.yul\":2416:2422   */\n      0x00\n        /* \"#utility.yul\":2450:2455   */\n      dup2\n        /* \"#utility.yul\":2444:2456   */\n      mload\n        /* \"#utility.yul\":2434:2456   */\n      swap1\n      pop\n        /* \"#utility.yul\":2364:2463   */\n      swap2\n      swap1\n      pop\n      jump\t// out\n        /* \"#utility.yul\":2469:2638   */\n    tag_52:\n        /* \"#utility.yul\":2553:2564   */\n      0x00\n        /* \"#utility.yul\":2587:2593   */\n      dup3\n        /* \"#utility.yul\":2582:2585   */\n      dup3\n        /* \"#utility.yul\":2575:2594   */\n      mstore\n        /* \"#utility.yul\":2627:2631   */\n      0x20\n        /* \"#utility.yul\":2622:2625   */\n      dup3\n        /* \"#utility.yul\":2618:2632   */\n      add\n        /* \"#utility.yul\":2603:2632   */\n      swap1\n      pop\n        /* \"#utility.yul\":2469:2638   */\n      swap3\n      swap2\n      pop\n      pop\n      jump\t// out\n        /* \"#utility.yul\":2644:2783   */\n    tag_53:\n        /* \"#utility.yul\":2733:2739   */\n      dup3\n        /* \"#utility.yul\":2728:2731   */\n      dup2\n        /* \"#utility.yul\":2723:2726   */\n      dup4\n        /* \"#utility.yul\":2717:2740   */\n      mcopy\n        /* \"#utility.yul\":2774:2775   */\n      0x00\n        /* \"#utility.yul\":2765:2771   */\n      dup4\n        /* \"#utility.yul\":2760:2763   */\n      dup4\n        /* \"#utility.yul\":2756:2772   */\n      add\n        /* \"#utility.yul\":2749:2776   */\n      mstore\n        /* \"#utility.yul\":2644:2783   */\n      pop\n      pop\n      pop\n      jump\t// out\n        /* \"#utility.yul\":2789:2891   */\n    tag_54:\n        /* \"#utility.yul\":2830:2836   */\n      0x00\n        /* \"#utility.yul\":2881:2883   */\n      0x1f\n        /* \"#utility.yul\":2877:2884   */\n      not\n        /* \"#utility.yul\":2872:2874   */\n      0x1f\n        /* \"#utility.yul\":2865:2870   */\n      dup4\n        /* \"#utility.yul\":2861:2875   */\n      add\n        /* \"#utility.yul\":2857:2885   */\n      and\n        /* \"#utility.yul\":2847:2885   */\n      swap1\n      pop\n        /* \"#utility.yul\":2789:2891   */\n      swap2\n      swap1\n      pop\n      jump\t// out\n        /* \"#utility.yul\":2897:3274   */\n    tag_55:\n        /* \"#utility.yul\":2985:2988   */\n      0x00\n        /* \"#utility.yul\":3013:3052   */\n      tag_121\n        /* \"#utility.yul\":3046:3051   */\n      dup3\n        /* \"#utility.yul\":3013:3052   */\n      tag_51\n      jump\t// in\n    tag_121:\n        /* \"#utility.yul\":3068:3139   */\n      tag_122\n        /* \"#utility.yul\":3132:3138   */\n      dup2\n        /* \"#utility.yul\":3127:3130   */\n      dup6\n        /* \"#utility.yul\":3068:3139   */\n      tag_52\n      jump\t// in\n    tag_122:\n        /* \"#utility.yul\":3061:3139   */\n      swap4\n      pop\n        /* \"#utility.yul\":3148:3213   */\n      tag_123\n        /* \"#utility.yul\":3206:3212   */\n      dup2\n        /* \"#utility.yul\":3201:3204   */\n      dup6\n        /* \"#utility.yul\":3194:3198   */\n      0x20\n        /* \"#utility.yul\":3187:3192   */\n      dup7\n        /* \"#utility.yul\":3183:3199   */\n      add\n        /* \"#utility.yul\":3148:3213   */\n      tag_53\n      jump\t// in\n    tag_123:\n        /* \"#utility.yul\":3238:3267   */\n      tag_124\n        /* \"#utility.yul\":3260:3266   */\n      dup2\n        /* \"#utility.yul\":3238:3267   */\n      tag_54\n      jump\t// in\n    tag_124:\n        /* \"#utility.yul\":3233:3236   */\n      dup5\n        /* \"#utility.yul\":3229:3268   */\n      add\n        /* \"#utility.yul\":3222:3268   */\n      swap2\n      pop\n        /* \"#utility.yul\":2989:3274   */\n      pop\n        /* \"#utility.yul\":2897:3274   */\n      swap3\n      swap2\n      pop\n      pop\n      jump\t// out\n        /* \"#utility.yul\":3280:3398   */\n    tag_56:\n        /* \"#utility.yul\":3367:3391   */\n      tag_126\n        /* \"#utility.yul\":3385:3390   */\n      dup2\n        /* \"#utility.yul\":3367:3391   */\n      tag_48\n      jump\t// in\n    tag_126:\n        /* \"#utility.yul\":3362:3365   */\n      dup3\n        /* \"#utility.yul\":3355:3392   */\n      mstore\n        /* \"#utility.yul\":3280:3398   */\n      pop\n      pop\n      jump\t// out\n        /* \"#utility.yul\":3404:3937   */\n    tag_20:\n        /* \"#utility.yul\":3573:3577   */\n      0x00\n        /* \"#utility.yul\":3611:3613   */\n      0x60\n        /* \"#utility.yul\":3600:3609   */\n      dup3\n        /* \"#utility.yul\":3596:3614   */\n      add\n        /* \"#utility.yul\":3588:3614   */\n      swap1\n      pop\n        /* \"#utility.yul\":3660:3669   */\n      dup2\n        /* \"#utility.yul\":3654:3658   */\n      dup2\n        /* \"#utility.yul\":3650:3670   */\n      sub\n        /* \"#utility.yul\":3646:3647   */\n      0x00\n        /* \"#utility.yul\":3635:3644   */\n      dup4\n        /* \"#utility.yul\":3631:3648   */\n      add\n        /* \"#utility.yul\":3624:3671   */\n      mstore\n        /* \"#utility.yul\":3688:3766   */\n      tag_128\n        /* \"#utility.yul\":3761:3765   */\n      dup2\n        /* \"#utility.yul\":3752:3758   */\n      dup7\n        /* \"#utility.yul\":3688:3766   */\n      tag_55\n      jump\t// in\n    tag_128:\n        /* \"#utility.yul\":3680:3766   */\n      swap1\n      pop\n        /* \"#utility.yul\":3776:3848   */\n      tag_129\n        /* \"#utility.yul\":3844:3846   */\n      0x20\n        /* \"#utility.yul\":3833:3842   */\n      dup4\n        /* \"#utility.yul\":3829:3847   */\n      add\n        /* \"#utility.yul\":3820:3826   */\n      dup6\n        /* \"#utility.yul\":3776:3848   */\n      tag_56\n      jump\t// in\n    tag_129:\n        /* \"#utility.yul\":3858:3930   */\n      tag_130\n        /* \"#utility.yul\":3926:3928   */\n      0x40\n        /* \"#utility.yul\":3915:3924   */\n      dup4\n        /* \"#utility.yul\":3911:3929   */\n      add\n        /* \"#utility.yul\":3902:3908   */\n      dup5\n        /* \"#utility.yul\":3858:3930   */\n      tag_41\n      jump\t// in\n    tag_130:\n        /* \"#utility.yul\":3404:3937   */\n      swap5\n      swap4\n      pop\n      pop\n      pop\n      pop\n      jump\t// out\n        /* \"#utility.yul\":3943:4060   */\n    tag_57:\n        /* \"#utility.yul\":4052:4053   */\n      0x00\n        /* \"#utility.yul\":4049:4050   */\n      dup1\n        /* \"#utility.yul\":4042:4054   */\n      revert\n        /* \"#utility.yul\":4066:4183   */\n    tag_58:\n        /* \"#utility.yul\":4175:4176   */\n      0x00\n        /* \"#utility.yul\":4172:4173   */\n      dup1\n        /* \"#utility.yul\":4165:4177   */\n      revert\n        /* \"#utility.yul\":4189:4369   */\n    tag_59:\n        /* \"#utility.yul\":4237:4314   */\n      0x4e487b7100000000000000000000000000000000000000000000000000000000\n        /* \"#utility.yul\":4234:4235   */\n      0x00\n        /* \"#utility.yul\":4227:4315   */\n      mstore\n        /* \"#utility.yul\":4334:4338   */\n      0x41\n        /* \"#utility.yul\":4331:4332   */\n      0x04\n        /* \"#utility.yul\":4324:4339   */\n      mstore\n        /* \"#utility.yul\":4358:4362   */\n      0x24\n        /* \"#utility.yul\":4355:4356   */\n      0x00\n        /* \"#utility.yul\":4348:4363   */\n      revert\n        /* \"#utility.yul\":4375:4656   */\n    tag_60:\n        /* \"#utility.yul\":4458:4485   */\n      tag_135\n        /* \"#utility.yul\":4480:4484   */\n      dup3\n        /* \"#utility.yul\":4458:4485   */\n      tag_54\n      jump\t// in\n    tag_135:\n        /* \"#utility.yul\":4450:4456   */\n      dup2\n        /* \"#utility.yul\":4446:4486   */\n      add\n        /* \"#utility.yul\":4588:4594   */\n      dup2\n        /* \"#utility.yul\":4576:4586   */\n      dup2\n        /* \"#utility.yul\":4573:4595   */\n      lt\n        /* \"#utility.yul\":4552:4570   */\n      0xffffffffffffffff\n        /* \"#utility.yul\":4540:4550   */\n      dup3\n        /* \"#utility.yul\":4537:4571   */\n      gt\n        /* \"#utility.yul\":4534:4596   */\n      or\n        /* \"#utility.yul\":4531:4619   */\n      iszero\n      tag_136\n      jumpi\n        /* \"#utility.yul\":4599:4617   */\n      tag_137\n      tag_59\n      jump\t// in\n    tag_137:\n        /* \"#utility.yul\":4531:4619   */\n    tag_136:\n        /* \"#utility.yul\":4639:4649   */\n      dup1\n        /* \"#utility.yul\":4635:4637   */\n      0x40\n        /* \"#utility.yul\":4628:4650   */\n      mstore\n        /* \"#utility.yul\":4418:4656   */\n      pop\n        /* \"#utility.yul\":4375:4656   */\n      pop\n      pop\n      jump\t// out\n        /* \"#utility.yul\":4662:4791   */\n    tag_61:\n        /* \"#utility.yul\":4696:4702   */\n      0x00\n        /* \"#utility.yul\":4723:4743   */\n      tag_139\n      tag_42\n      jump\t// in\n    tag_139:\n        /* \"#utility.yul\":4713:4743   */\n      swap1\n      pop\n        /* \"#utility.yul\":4752:4785   */\n      tag_140\n        /* \"#utility.yul\":4780:4784   */\n      dup3\n        /* \"#utility.yul\":4772:4778   */\n      dup3\n        /* \"#utility.yul\":4752:4785   */\n      tag_60\n      jump\t// in\n    tag_140:\n        /* \"#utility.yul\":4662:4791   */\n      swap2\n      swap1\n      pop\n      jump\t// out\n        /* \"#utility.yul\":4797:5105   */\n    tag_62:\n        /* \"#utility.yul\":4859:4863   */\n      0x00\n        /* \"#utility.yul\":4949:4967   */\n      0xffffffffffffffff\n        /* \"#utility.yul\":4941:4947   */\n      dup3\n        /* \"#utility.yul\":4938:4968   */\n      gt\n        /* \"#utility.yul\":4935:4991   */\n      iszero\n      tag_142\n      jumpi\n        /* \"#utility.yul\":4971:4989   */\n      tag_143\n      tag_59\n      jump\t// in\n    tag_143:\n        /* \"#utility.yul\":4935:4991   */\n    tag_142:\n        /* \"#utility.yul\":5009:5038   */\n      tag_144\n        /* \"#utility.yul\":5031:5037   */\n      dup3\n        /* \"#utility.yul\":5009:5038   */\n      tag_54\n      jump\t// in\n    tag_144:\n        /* \"#utility.yul\":5001:5038   */\n      swap1\n      pop\n        /* \"#utility.yul\":5093:5097   */\n      0x20\n        /* \"#utility.yul\":5087:5091   */\n      dup2\n        /* \"#utility.yul\":5083:5098   */\n      add\n        /* \"#utility.yul\":5075:5098   */\n      swap1\n      pop\n        /* \"#utility.yul\":4797:5105   */\n      swap2\n      swap1\n      pop\n      jump\t// out\n        /* \"#utility.yul\":5111:5259   */\n    tag_63:\n        /* \"#utility.yul\":5209:5215   */\n      dup3\n        /* \"#utility.yul\":5204:5207   */\n      dup2\n        /* \"#utility.yul\":5199:5202   */\n      dup4\n        /* \"#utility.yul\":5186:5216   */\n      calldatacopy\n        /* \"#utility.yul\":5250:5251   */\n      0x00\n        /* \"#utility.yul\":5241:5247   */\n      dup4\n        /* \"#utility.yul\":5236:5239   */\n      dup4\n        /* \"#utility.yul\":5232:5248   */\n      add\n        /* \"#utility.yul\":5225:5252   */\n      mstore\n        /* \"#utility.yul\":5111:5259   */\n      pop\n      pop\n      pop\n      jump\t// out\n        /* \"#utility.yul\":5265:5690   */\n    tag_64:\n        /* \"#utility.yul\":5343:5348   */\n      0x00\n        /* \"#utility.yul\":5368:5434   */\n      tag_147\n        /* \"#utility.yul\":5384:5433   */\n      tag_148\n        /* \"#utility.yul\":5426:5432   */\n      dup5\n        /* \"#utility.yul\":5384:5433   */\n      tag_62\n      jump\t// in\n    tag_148:\n        /* \"#utility.yul\":5368:5434   */\n      tag_61\n      jump\t// in\n    tag_147:\n        /* \"#utility.yul\":5359:5434   */\n      swap1\n      pop\n        /* \"#utility.yul\":5457:5463   */\n      dup3\n        /* \"#utility.yul\":5450:5455   */\n      dup2\n        /* \"#utility.yul\":5443:5464   */\n      mstore\n        /* \"#utility.yul\":5495:5499   */\n      0x20\n        /* \"#utility.yul\":5488:5493   */\n      dup2\n        /* \"#utility.yul\":5484:5500   */\n      add\n        /* \"#utility.yul\":5533:5536   */\n      dup5\n        /* \"#utility.yul\":5524:5530   */\n      dup5\n        /* \"#utility.yul\":5519:5522   */\n      dup5\n        /* \"#utility.yul\":5515:5531   */\n      add\n        /* \"#utility.yul\":5512:5537   */\n      gt\n        /* \"#utility.yul\":5509:5621   */\n      iszero\n      tag_149\n      jumpi\n        /* \"#utility.yul\":5540:5619   */\n      tag_150\n      tag_58\n      jump\t// in\n    tag_150:\n        /* \"#utility.yul\":5509:5621   */\n    tag_149:\n        /* \"#utility.yul\":5630:5684   */\n      tag_151\n        /* \"#utility.yul\":5677:5683   */\n      dup5\n        /* \"#utility.yul\":5672:5675   */\n      dup3\n        /* \"#utility.yul\":5667:5670   */\n      dup6\n        /* \"#utility.yul\":5630:5684   */\n      tag_63\n      jump\t// in\n    tag_151:\n        /* \"#utility.yul\":5349:5690   */\n      pop\n        /* \"#utility.yul\":5265:5690   */\n      swap4\n      swap3\n      pop\n      pop\n      pop\n      jump\t// out\n        /* \"#utility.yul\":5710:6050   */\n    tag_65:\n        /* \"#utility.yul\":5766:5771   */\n      0x00\n        /* \"#utility.yul\":5815:5818   */\n      dup3\n        /* \"#utility.yul\":5808:5812   */\n      0x1f\n        /* \"#utility.yul\":5800:5806   */\n      dup4\n        /* \"#utility.yul\":5796:5813   */\n      add\n        /* \"#utility.yul\":5792:5819   */\n      slt\n        /* \"#utility.yul\":5782:5904   */\n      tag_153\n      jumpi\n        /* \"#utility.yul\":5823:5902   */\n      tag_154\n      tag_57\n      jump\t// in\n    tag_154:\n        /* \"#utility.yul\":5782:5904   */\n    tag_153:\n        /* \"#utility.yul\":5940:5946   */\n      dup2\n        /* \"#utility.yul\":5927:5947   */\n      calldataload\n        /* \"#utility.yul\":5965:6044   */\n      tag_155\n        /* \"#utility.yul\":6040:6043   */\n      dup5\n        /* \"#utility.yul\":6032:6038   */\n      dup3\n        /* \"#utility.yul\":6025:6029   */\n      0x20\n        /* \"#utility.yul\":6017:6023   */\n      dup7\n        /* \"#utility.yul\":6013:6030   */\n      add\n        /* \"#utility.yul\":5965:6044   */\n      tag_64\n      jump\t// in\n    tag_155:\n        /* \"#utility.yul\":5956:6044   */\n      swap2\n      pop\n        /* \"#utility.yul\":5772:6050   */\n      pop\n        /* \"#utility.yul\":5710:6050   */\n      swap3\n      swap2\n      pop\n      pop\n      jump\t// out\n        /* \"#utility.yul\":6056:6710   */\n    tag_23:\n        /* \"#utility.yul\":6134:6140   */\n      0x00\n        /* \"#utility.yul\":6142:6148   */\n      dup1\n        /* \"#utility.yul\":6191:6193   */\n      0x40\n        /* \"#utility.yul\":6179:6188   */\n      dup4\n        /* \"#utility.yul\":6170:6177   */\n      dup6\n        /* \"#utility.yul\":6166:6189   */\n      sub\n        /* \"#utility.yul\":6162:6194   */\n      slt\n        /* \"#utility.yul\":6159:6278   */\n      iszero\n      tag_157\n      jumpi\n        /* \"#utility.yul\":6197:6276   */\n      tag_158\n      tag_43\n      jump\t// in\n    tag_158:\n        /* \"#utility.yul\":6159:6278   */\n    tag_157:\n        /* \"#utility.yul\":6345:6346   */\n      0x00\n        /* \"#utility.yul\":6334:6343   */\n      dup4\n        /* \"#utility.yul\":6330:6347   */\n      add\n        /* \"#utility.yul\":6317:6348   */\n      calldataload\n        /* \"#utility.yul\":6375:6393   */\n      0xffffffffffffffff\n        /* \"#utility.yul\":6367:6373   */\n      dup2\n        /* \"#utility.yul\":6364:6394   */\n      gt\n        /* \"#utility.yul\":6361:6478   */\n      iszero\n      tag_159\n      jumpi\n        /* \"#utility.yul\":6397:6476   */\n      tag_160\n      tag_44\n      jump\t// in\n    tag_160:\n        /* \"#utility.yul\":6361:6478   */\n    tag_159:\n        /* \"#utility.yul\":6502:6565   */\n      tag_161\n        /* \"#utility.yul\":6557:6564   */\n      dup6\n        /* \"#utility.yul\":6548:6554   */\n      dup3\n        /* \"#utility.yul\":6537:6546   */\n      dup7\n        /* \"#utility.yul\":6533:6555   */\n      add\n        /* \"#utility.yul\":6502:6565   */\n      tag_65\n      jump\t// in\n    tag_161:\n        /* \"#utility.yul\":6492:6565   */\n      swap3\n      pop\n        /* \"#utility.yul\":6288:6575   */\n      pop\n        /* \"#utility.yul\":6614:6616   */\n      0x20\n        /* \"#utility.yul\":6640:6693   */\n      tag_162\n        /* \"#utility.yul\":6685:6692   */\n      dup6\n        /* \"#utility.yul\":6676:6682   */\n      dup3\n        /* \"#utility.yul\":6665:6674   */\n      dup7\n        /* \"#utility.yul\":6661:6683   */\n      add\n        /* \"#utility.yul\":6640:6693   */\n      tag_46\n      jump\t// in\n    tag_162:\n        /* \"#utility.yul\":6630:6693   */\n      swap2\n      pop\n        /* \"#utility.yul\":6585:6703   */\n      pop\n        /* \"#utility.yul\":6056:6710   */\n      swap3\n      pop\n      swap3\n      swap1\n      pop\n      jump\t// out\n        /* \"#utility.yul\":6716:6940   */\n    tag_66:\n        /* \"#utility.yul\":6856:6890   */\n      0x4f6e6c7920746865206f776e65722063616e207472616e73666572206f776e65\n        /* \"#utility.yul\":6852:6853   */\n      0x00\n        /* \"#utility.yul\":6844:6850   */\n      dup3\n        /* \"#utility.yul\":6840:6854   */\n      add\n        /* \"#utility.yul\":6833:6891   */\n      mstore\n        /* \"#utility.yul\":6925:6932   */\n      0x7273686970000000000000000000000000000000000000000000000000000000\n        /* \"#utility.yul\":6920:6922   */\n      0x20\n        /* \"#utility.yul\":6912:6918   */\n      dup3\n        /* \"#utility.yul\":6908:6923   */\n      add\n        /* \"#utility.yul\":6901:6933   */\n      mstore\n        /* \"#utility.yul\":6716:6940   */\n      pop\n      jump\t// out\n        /* \"#utility.yul\":6946:7312   */\n    tag_67:\n        /* \"#utility.yul\":7088:7091   */\n      0x00\n        /* \"#utility.yul\":7109:7176   */\n      tag_165\n        /* \"#utility.yul\":7173:7175   */\n      0x25\n        /* \"#utility.yul\":7168:7171   */\n      dup4\n        /* \"#utility.yul\":7109:7176   */\n      tag_52\n      jump\t// in\n    tag_165:\n        /* \"#utility.yul\":7102:7176   */\n      swap2\n      pop\n        /* \"#utility.yul\":7185:7278   */\n      tag_166\n        /* \"#utility.yul\":7274:7277   */\n      dup3\n        /* \"#utility.yul\":7185:7278   */\n      tag_66\n      jump\t// in\n    tag_166:\n        /* \"#utility.yul\":7303:7305   */\n      0x40\n        /* \"#utility.yul\":7298:7301   */\n      dup3\n        /* \"#utility.yul\":7294:7306   */\n      add\n        /* \"#utility.yul\":7287:7306   */\n      swap1\n      pop\n        /* \"#utility.yul\":6946:7312   */\n      swap2\n      swap1\n      pop\n      jump\t// out\n        /* \"#utility.yul\":7318:7737   */\n    tag_28:\n        /* \"#utility.yul\":7484:7488   */\n      0x00\n        /* \"#utility.yul\":7522:7524   */\n      0x20\n        /* \"#utility.yul\":7511:7520   */\n      dup3\n        /* \"#utility.yul\":7507:7525   */\n      add\n        /* \"#utility.yul\":7499:7525   */\n      swap1\n      pop\n        /* \"#utility.yul\":7571:7580   */\n      dup2\n        /* \"#utility.yul\":7565:7569   */\n      dup2\n        /* \"#utility.yul\":7561:7581   */\n      sub\n        /* \"#utility.yul\":7557:7558   */\n      0x00\n        /* \"#utility.yul\":7546:7555   */\n      dup4\n        /* \"#utility.yul\":7542:7559   */\n      add\n        /* \"#utility.yul\":7535:7582   */\n      mstore\n        /* \"#utility.yul\":7599:7730   */\n      tag_168\n        /* \"#utility.yul\":7725:7729   */\n      dup2\n        /* \"#utility.yul\":7599:7730   */\n      tag_67\n      jump\t// in\n    tag_168:\n        /* \"#utility.yul\":7591:7730   */\n      swap1\n      pop\n        /* \"#utility.yul\":7318:7737   */\n      swap2\n      swap1\n      pop\n      jump\t// out\n        /* \"#utility.yul\":7743:7923   */\n    tag_68:\n        /* \"#utility.yul\":7791:7868   */\n      0x4e487b7100000000000000000000000000000000000000000000000000000000\n        /* \"#utility.yul\":7788:7789   */\n      0x00\n        /* \"#utility.yul\":7781:7869   */\n      mstore\n        /* \"#utility.yul\":7888:7892   */\n      0x22\n        /* \"#utility.yul\":7885:7886   */\n      0x04\n        /* \"#utility.yul\":7878:7893   */\n      mstore\n        /* \"#utility.yul\":7912:7916   */\n      0x24\n        /* \"#utility.yul\":7909:7910   */\n      0x00\n        /* \"#utility.yul\":7902:7917   */\n      revert\n        /* \"#utility.yul\":7929:8249   */\n    tag_30:\n        /* \"#utility.yul\":7973:7979   */\n      0x00\n        /* \"#utility.yul\":8010:8011   */\n      0x02\n        /* \"#utility.yul\":8004:8008   */\n      dup3\n        /* \"#utility.yul\":8000:8012   */\n      div\n        /* \"#utility.yul\":7990:8012   */\n      swap1\n      pop\n        /* \"#utility.yul\":8057:8058   */\n      0x01\n        /* \"#utility.yul\":8051:8055   */\n      dup3\n        /* \"#utility.yul\":8047:8059   */\n      and\n        /* \"#utility.yul\":8078:8096   */\n      dup1\n        /* \"#utility.yul\":8068:8149   */\n      tag_171\n      jumpi\n        /* \"#utility.yul\":8134:8138   */\n      0x7f\n        /* \"#utility.yul\":8126:8132   */\n      dup3\n        /* \"#utility.yul\":8122:8139   */\n      and\n        /* \"#utility.yul\":8112:8139   */\n      swap2\n      pop\n        /* \"#utility.yul\":8068:8149   */\n    tag_171:\n        /* \"#utility.yul\":8196:8198   */\n      0x20\n        /* \"#utility.yul\":8188:8194   */\n      dup3\n        /* \"#utility.yul\":8185:8199   */\n      lt\n        /* \"#utility.yul\":8165:8183   */\n      dup2\n        /* \"#utility.yul\":8162:8200   */\n      sub\n        /* \"#utility.yul\":8159:8243   */\n      tag_172\n      jumpi\n        /* \"#utility.yul\":8215:8233   */\n      tag_173\n      tag_68\n      jump\t// in\n    tag_173:\n        /* \"#utility.yul\":8159:8243   */\n    tag_172:\n        /* \"#utility.yul\":7980:8249   */\n      pop\n        /* \"#utility.yul\":7929:8249   */\n      swap2\n      swap1\n      pop\n      jump\t// out\n        /* \"#utility.yul\":8255:8435   */\n    tag_69:\n        /* \"#utility.yul\":8303:8380   */\n      0x4e487b7100000000000000000000000000000000000000000000000000000000\n        /* \"#utility.yul\":8300:8301   */\n      0x00\n        /* \"#utility.yul\":8293:8381   */\n      mstore\n        /* \"#utility.yul\":8400:8404   */\n      0x11\n        /* \"#utility.yul\":8397:8398   */\n      0x04\n        /* \"#utility.yul\":8390:8405   */\n      mstore\n        /* \"#utility.yul\":8424:8428   */\n      0x24\n        /* \"#utility.yul\":8421:8422   */\n      0x00\n        /* \"#utility.yul\":8414:8429   */\n      revert\n        /* \"#utility.yul\":8441:8674   */\n    tag_37:\n        /* \"#utility.yul\":8480:8483   */\n      0x00\n        /* \"#utility.yul\":8503:8527   */\n      tag_176\n        /* \"#utility.yul\":8521:8526   */\n      dup3\n        /* \"#utility.yul\":8503:8527   */\n      tag_40\n      jump\t// in\n    tag_176:\n        /* \"#utility.yul\":8494:8527   */\n      swap2\n      pop\n        /* \"#utility.yul\":8549:8615   */\n      0xffffffffffffffffffffffffffffffffffffffffffffffffffffffffffffffff\n        /* \"#utility.yul\":8542:8547   */\n      dup3\n        /* \"#utility.yul\":8539:8616   */\n      sub\n        /* \"#utility.yul\":8536:8639   */\n      tag_177\n      jumpi\n        /* \"#utility.yul\":8619:8637   */\n      tag_178\n      tag_69\n      jump\t// in\n    tag_178:\n        /* \"#utility.yul\":8536:8639   */\n    tag_177:\n        /* \"#utility.yul\":8666:8667   */\n      0x01\n        /* \"#utility.yul\":8659:8664   */\n      dup3\n        /* \"#utility.yul\":8655:8668   */\n      add\n        /* \"#utility.yul\":8648:8668   */\n      swap1\n      pop\n        /* \"#utility.yul\":8441:8674   */\n      swap2\n      swap1\n      pop\n      jump\t// out\n        /* \"#utility.yul\":8680:8821   */\n    tag_70:\n        /* \"#utility.yul\":8729:8733   */\n      0x00\n        /* \"#utility.yul\":8752:8755   */\n      dup2\n        /* \"#utility.yul\":8744:8755   */\n      swap1\n      pop\n        /* \"#utility.yul\":8775:8778   */\n      dup2\n        /* \"#utility.yul\":8772:8773   */\n      0x00\n        /* \"#utility.yul\":8765:8779   */\n      mstore\n        /* \"#utility.yul\":8809:8813   */\n      0x20\n        /* \"#utility.yul\":8806:8807   */\n      0x00\n        /* \"#utility.yul\":8796:8814   */\n      keccak256\n        /* \"#utility.yul\":8788:8814   */\n      swap1\n      pop\n        /* \"#utility.yul\":8680:8821   */\n      swap2\n      swap1\n      pop\n      jump\t// out\n        /* \"#utility.yul\":8827:8920   */\n    tag_71:\n        /* \"#utility.yul\":8864:8870   */\n      0x00\n        /* \"#utility.yul\":8911:8913   */\n      0x20\n        /* \"#utility.yul\":8906:8908   */\n      0x1f\n        /* \"#utility.yul\":8899:8904   */\n      dup4\n        /* \"#utility.yul\":8895:8909   */\n      add\n        /* \"#utility.yul\":8891:8914   */\n      div\n        /* \"#utility.yul\":8881:8914   */\n      swap1\n      pop\n        /* \"#utility.yul\":8827:8920   */\n      swap2\n      swap1\n      pop\n      jump\t// out\n        /* \"#utility.yul\":8926:9033   */\n    tag_72:\n        /* \"#utility.yul\":8970:8978   */\n      0x00\n        /* \"#utility.yul\":9020:9025   */\n      dup3\n        /* \"#utility.yul\":9014:9018   */\n      dup3\n        /* \"#utility.yul\":9010:9026   */\n      shl\n        /* \"#utility.yul\":8989:9026   */\n      swap1\n      pop\n        /* \"#utility.yul\":8926:9033   */\n      swap3\n      swap2\n      pop\n      pop\n      jump\t// out\n        /* \"#utility.yul\":9039:9432   */\n    tag_73:\n        /* \"#utility.yul\":9108:9114   */\n      0x00\n        /* \"#utility.yul\":9158:9159   */\n      0x08\n        /* \"#utility.yul\":9146:9156   */\n      dup4\n        /* \"#utility.yul\":9142:9160   */\n      mul\n        /* \"#utility.yul\":9181:9278   */\n      tag_183\n        /* \"#utility.yul\":9211:9277   */\n      0xffffffffffffffffffffffffffffffffffffffffffffffffffffffffffffffff\n        /* \"#utility.yul\":9200:9209   */\n      dup3\n        /* \"#utility.yul\":9181:9278   */\n      tag_72\n      jump\t// in\n    tag_183:\n        /* \"#utility.yul\":9299:9338   */\n      tag_184\n        /* \"#utility.yul\":9329:9337   */\n      dup7\n        /* \"#utility.yul\":9318:9327   */\n      dup4\n        /* \"#utility.yul\":9299:9338   */\n      tag_72\n      jump\t// in\n    tag_184:\n        /* \"#utility.yul\":9287:9338   */\n      swap6\n      pop\n        /* \"#utility.yul\":9371:9375   */\n      dup1\n        /* \"#utility.yul\":9367:9376   */\n      not\n        /* \"#utility.yul\":9360:9365   */\n      dup5\n        /* \"#utility.yul\":9356:9377   */\n      and\n        /* \"#utility.yul\":9347:9377   */\n      swap4\n      pop\n        /* \"#utility.yul\":9420:9424   */\n      dup1\n        /* \"#utility.yul\":9410:9418   */\n      dup7\n        /* \"#utility.yul\":9406:9425   */\n      and\n        /* \"#utility.yul\":9399:9404   */\n      dup5\n        /* \"#utility.yul\":9396:9426   */\n      or\n        /* \"#utility.yul\":9386:9426   */\n      swap3\n      pop\n        /* \"#utility.yul\":9115:9432   */\n      pop\n      pop\n        /* \"#utility.yul\":9039:9432   */\n      swap4\n      swap3\n      pop\n      pop\n      pop\n      jump\t// out\n        /* \"#utility.yul\":9438:9498   */\n    tag_74:\n        /* \"#utility.yul\":9466:9469   */\n      0x00\n        /* \"#utility.yul\":9487:9492   */\n      dup2\n        /* \"#utility.yul\":9480:9492   */\n      swap1\n      pop\n        /* \"#utility.yul\":9438:9498   */\n      swap2\n      swap1\n      pop\n      jump\t// out\n        /* \"#utility.yul\":9504:9646   */\n    tag_75:\n        /* \"#utility.yul\":9554:9563   */\n      0x00\n        /* \"#utility.yul\":9587:9640   */\n      tag_187\n        /* \"#utility.yul\":9605:9639   */\n      tag_188\n        /* \"#utility.yul\":9614:9638   */\n      tag_189\n        /* \"#utility.yul\":9632:9637   */\n      dup5\n        /* \"#utility.yul\":9614:9638   */\n      tag_40\n      jump\t// in\n    tag_189:\n        /* \"#utility.yul\":9605:9639   */\n      tag_74\n      jump\t// in\n    tag_188:\n        /* \"#utility.yul\":9587:9640   */\n      tag_40\n      jump\t// in\n    tag_187:\n        /* \"#utility.yul\":9574:9640   */\n      swap1\n      pop\n        /* \"#utility.yul\":9504:9646   */\n      swap2\n      swap1\n      pop\n      jump\t// out\n        /* \"#utility.yul\":9652:9727   */\n    tag_76:\n        /* \"#utility.yul\":9695:9698   */\n      0x00\n        /* \"#utility.yul\":9716:9721   */\n      dup2\n        /* \"#utility.yul\":9709:9721   */\n      swap1\n      pop\n        /* \"#utility.yul\":9652:9727   */\n      swap2\n      swap1\n      pop\n      jump\t// out\n        /* \"#utility.yul\":9733:10002   */\n    tag_77:\n        /* \"#utility.yul\":9843:9882   */\n      tag_192\n        /* \"#utility.yul\":9874:9881   */\n      dup4\n        /* \"#utility.yul\":9843:9882   */\n      tag_75\n      jump\t// in\n    tag_192:\n        /* \"#utility.yul\":9904:9995   */\n      tag_193\n        /* \"#utility.yul\":9953:9994   */\n      tag_194\n        /* \"#utility.yul\":9977:9993   */\n      dup3\n        /* \"#utility.yul\":9953:9994   */\n      tag_76\n      jump\t// in\n    tag_194:\n        /* \"#utility.yul\":9945:9951   */\n      dup5\n        /* \"#utility.yul\":9938:9942   */\n      dup5\n        /* \"#utility.yul\":9932:9943   */\n      sload\n        /* \"#utility.yul\":9904:9995   */\n      tag_73\n      jump\t// in\n    tag_193:\n        /* \"#utility.yul\":9898:9902   */\n      dup3\n        /* \"#utility.yul\":9891:9996   */\n      sstore\n        /* \"#utility.yul\":9809:10002   */\n      pop\n        /* \"#utility.yul\":9733:10002   */\n      pop\n      pop\n      pop\n      jump\t// out\n        /* \"#utility.yul\":10008:10081   */\n    tag_78:\n        /* \"#utility.yul\":10053:10056   */\n      0x00\n        /* \"#utility.yul\":10008:10081   */\n      swap1\n      jump\t// out\n        /* \"#utility.yul\":10087:10276   */\n    tag_79:\n        /* \"#utility.yul\":10164:10196   */\n      tag_197\n      tag_78\n      jump\t// in\n    tag_197:\n        /* \"#utility.yul\":10205:10270   */\n      tag_198\n        /* \"#utility.yul\":10263:10269   */\n      dup2\n        /* \"#utility.yul\":10255:10261   */\n      dup5\n        /* \"#utility.yul\":10249:10253   */\n      dup5\n        /* \"#utility.yul\":10205:10270   */\n      tag_77\n      jump\t// in\n    tag_198:\n        /* \"#utility.yul\":10140:10276   */\n      pop\n        /* \"#utility.yul\":10087:10276   */\n      pop\n      pop\n      jump\t// out\n        /* \"#utility.yul\":10282:10468   */\n    tag_80:\n        /* \"#utility.yul\":10342:10462   */\n    tag_200:\n        /* \"#utility.yul\":10359:10362   */\n      dup2\n        /* \"#utility.yul\":10352:10357   */\n      dup2\n        /* \"#utility.yul\":10349:10363   */\n      lt\n        /* \"#utility.yul\":10342:10462   */\n      iszero\n      tag_202\n      jumpi\n        /* \"#utility.yul\":10413:10452   */\n      tag_203\n        /* \"#utility.yul\":10450:10451   */\n      0x00\n        /* \"#utility.yul\":10443:10448   */\n      dup3\n        /* \"#utility.yul\":10413:10452   */\n      tag_79\n      jump\t// in\n    tag_203:\n        /* \"#utility.yul\":10386:10387   */\n      0x01\n        /* \"#utility.yul\":10379:10384   */\n      dup2\n        /* \"#utility.yul\":10375:10388   */\n      add\n        /* \"#utility.yul\":10366:10388   */\n      swap1\n      pop\n        /* \"#utility.yul\":10342:10462   */\n      jump(tag_200)\n    tag_202:\n        /* \"#utility.yul\":10282:10468   */\n      pop\n      pop\n      jump\t// out\n        /* \"#utility.yul\":10474:11017   */\n    tag_81:\n        /* \"#utility.yul\":10575:10577   */\n      0x1f\n        /* \"#utility.yul\":10570:10573   */\n      dup3\n        /* \"#utility.yul\":10567:10578   */\n      gt\n        /* \"#utility.yul\":10564:11010   */\n      iszero\n      tag_205\n      jumpi\n        /* \"#utility.yul\":10609:10647   */\n      tag_206\n        /* \"#utility.yul\":10641:10646   */\n      dup2\n        /* \"#utility.yul\":10609:10647   */\n      tag_70\n      jump\t// in\n    tag_206:\n        /* \"#utility.yul\":10693:10722   */\n      tag_207\n        /* \"#utility.yul\":10711:10721   */\n      dup5\n        /* \"#utility.yul\":10693:10722   */\n      tag_71\n      jump\t// in\n    tag_207:\n        /* \"#utility.yul\":10683:10691   */\n      dup2\n        /* \"#utility.yul\":10679:10723   */\n      add\n        /* \"#utility.yul\":10876:10878   */\n      0x20\n        /* \"#utility.yul\":10864:10874   */\n      dup6\n        /* \"#utility.yul\":10861:10879   */\n      lt\n        /* \"#utility.yul\":10858:10907   */\n      iszero\n      tag_208\n      jumpi\n        /* \"#utility.yul\":10897:10905   */\n      dup2\n        /* \"#utility.yul\":10882:10905   */\n      swap1\n      pop\n        /* \"#utility.yul\":10858:10907   */\n    tag_208:\n        /* \"#utility.yul\":10920:11000   */\n      tag_209\n        /* \"#utility.yul\":10976:10998   */\n      tag_210\n        /* \"#utility.yul\":10994:10997   */\n      dup6\n        /* \"#utility.yul\":10976:10998   */\n      tag_71\n      jump\t// in\n    tag_210:\n        /* \"#utility.yul\":10966:10974   */\n      dup4\n        /* \"#utility.yul\":10962:10999   */\n      add\n        /* \"#utility.yul\":10949:10960   */\n      dup3\n        /* \"#utility.yul\":10920:11000   */\n      tag_80\n      jump\t// in\n    tag_209:\n        /* \"#utility.yul\":10579:11010   */\n      pop\n      pop\n        /* \"#utility.yul\":10564:11010   */\n    tag_205:\n        /* \"#utility.yul\":10474:11017   */\n      pop\n      pop\n      pop\n      jump\t// out\n        /* \"#utility.yul\":11023:11140   */\n    tag_82:\n        /* \"#utility.yul\":11077:11085   */\n      0x00\n        /* \"#utility.yul\":11127:11132   */\n      dup3\n        /* \"#utility.yul\":11121:11125   */\n      dup3\n        /* \"#utility.yul\":11117:11133   */\n      shr\n        /* \"#utility.yul\":11096:11133   */\n      swap1\n      pop\n        /* \"#utility.yul\":11023:11140   */\n      swap3\n      swap2\n      pop\n      pop\n      jump\t// out\n        /* \"#utility.yul\":11146:11315   */\n    tag_83:\n        /* \"#utility.yul\":11190:11196   */\n      0x00\n        /* \"#utility.yul\":11223:11274   */\n      tag_213\n        /* \"#utility.yul\":11271:11272   */\n      0x00\n        /* \"#utility.yul\":11267:11273   */\n      not\n        /* \"#utility.yul\":11259:11264   */\n      dup5\n        /* \"#utility.yul\":11256:11257   */\n      0x08\n        /* \"#utility.yul\":11252:11265   */\n      mul\n        /* \"#utility.yul\":11223:11274   */\n      tag_82\n      jump\t// in\n    tag_213:\n        /* \"#utility.yul\":11219:11275   */\n      not\n        /* \"#utility.yul\":11304:11308   */\n      dup1\n        /* \"#utility.yul\":11298:11302   */\n      dup4\n        /* \"#utility.yul\":11294:11309   */\n      and\n        /* \"#utility.yul\":11284:11309   */\n      swap2\n      pop\n        /* \"#utility.yul\":11197:11315   */\n      pop\n        /* \"#utility.yul\":11146:11315   */\n      swap3\n      swap2\n      pop\n      pop\n      jump\t// out\n        /* \"#utility.yul\":11320:11615   */\n    tag_84:\n        /* \"#utility.yul\":11396:11400   */\n      0x00\n        /* \"#utility.yul\":11542:11571   */\n      tag_215\n        /* \"#utility.yul\":11567:11570   */\n      dup4\n        /* \"#utility.yul\":11561:11565   */\n      dup4\n        /* \"#utility.yul\":11542:11571   */\n      tag_83\n      jump\t// in\n    tag_215:\n        /* \"#utility.yul\":11534:11571   */\n      swap2\n      pop\n        /* \"#utility.yul\":11604:11607   */\n      dup3\n        /* \"#utility.yul\":11601:11602   */\n      0x02\n        /* \"#utility.yul\":11597:11608   */\n      mul\n        /* \"#utility.yul\":11591:11595   */\n      dup3\n        /* \"#utility.yul\":11588:11609   */\n      or\n        /* \"#utility.yul\":11580:11609   */\n      swap1\n      pop\n        /* \"#utility.yul\":11320:11615   */\n      swap3\n      swap2\n      pop\n      pop\n      jump\t// out\n        /* \"#utility.yul\":11620:13015   */\n    tag_39:\n        /* \"#utility.yul\":11737:11774   */\n      tag_217\n        /* \"#utility.yul\":11770:11773   */\n      dup3\n        /* \"#utility.yul\":11737:11774   */\n      tag_51\n      jump\t// in\n    tag_217:\n        /* \"#utility.yul\":11839:11857   */\n      0xffffffffffffffff\n        /* \"#utility.yul\":11831:11837   */\n      dup2\n        /* \"#utility.yul\":11828:11858   */\n      gt\n        /* \"#utility.yul\":11825:11881   */\n      iszero\n      tag_218\n      jumpi\n        /* \"#utility.yul\":11861:11879   */\n      tag_219\n      tag_59\n      jump\t// in\n    tag_219:\n        /* \"#utility.yul\":11825:11881   */\n    tag_218:\n        /* \"#utility.yul\":11905:11943   */\n      tag_220\n        /* \"#utility.yul\":11937:11941   */\n      dup3\n        /* \"#utility.yul\":11931:11942   */\n      sload\n        /* \"#utility.yul\":11905:11943   */\n      tag_30\n      jump\t// in\n    tag_220:\n        /* \"#utility.yul\":11990:12057   */\n      tag_221\n        /* \"#utility.yul\":12050:12056   */\n      dup3\n        /* \"#utility.yul\":12042:12048   */\n      dup3\n        /* \"#utility.yul\":12036:12040   */\n      dup6\n        /* \"#utility.yul\":11990:12057   */\n      tag_81\n      jump\t// in\n    tag_221:\n        /* \"#utility.yul\":12084:12085   */\n      0x00\n        /* \"#utility.yul\":12108:12112   */\n      0x20\n        /* \"#utility.yul\":12095:12112   */\n      swap1\n      pop\n        /* \"#utility.yul\":12140:12142   */\n      0x1f\n        /* \"#utility.yul\":12132:12138   */\n      dup4\n        /* \"#utility.yul\":12129:12143   */\n      gt\n        /* \"#utility.yul\":12157:12158   */\n      0x01\n        /* \"#utility.yul\":12152:12770   */\n      dup2\n      eq\n      tag_223\n      jumpi\n        /* \"#utility.yul\":12814:12815   */\n      0x00\n        /* \"#utility.yul\":12831:12837   */\n      dup5\n        /* \"#utility.yul\":12828:12905   */\n      iszero\n      tag_224\n      jumpi\n        /* \"#utility.yul\":12880:12889   */\n      dup3\n        /* \"#utility.yul\":12875:12878   */\n      dup8\n        /* \"#utility.yul\":12871:12890   */\n      add\n        /* \"#utility.yul\":12865:12891   */\n      mload\n        /* \"#utility.yul\":12856:12891   */\n      swap1\n      pop\n        /* \"#utility.yul\":12828:12905   */\n    tag_224:\n        /* \"#utility.yul\":12931:12998   */\n      tag_225\n        /* \"#utility.yul\":12991:12997   */\n      dup6\n        /* \"#utility.yul\":12984:12989   */\n      dup3\n        /* \"#utility.yul\":12931:12998   */\n      tag_84\n      jump\t// in\n    tag_225:\n        /* \"#utility.yul\":12925:12929   */\n      dup7\n        /* \"#utility.yul\":12918:12999   */\n      sstore\n        /* \"#utility.yul\":12787:13009   */\n      pop\n        /* \"#utility.yul\":12122:13009   */\n      jump(tag_222)\n        /* \"#utility.yul\":12152:12770   */\n    tag_223:\n        /* \"#utility.yul\":12204:12208   */\n      0x1f\n        /* \"#utility.yul\":12200:12209   */\n      not\n        /* \"#utility.yul\":12192:12198   */\n      dup5\n        /* \"#utility.yul\":12188:12210   */\n      and\n        /* \"#utility.yul\":12238:12275   */\n      tag_226\n        /* \"#utility.yul\":12270:12274   */\n      dup7\n        /* \"#utility.yul\":12238:12275   */\n      tag_70\n      jump\t// in\n    tag_226:\n        /* \"#utility.yul\":12297:12298   */\n      0x00\n        /* \"#utility.yul\":12311:12519   */\n    tag_227:\n        /* \"#utility.yul\":12325:12332   */\n      dup3\n        /* \"#utility.yul\":12322:12323   */\n      dup2\n        /* \"#utility.yul\":12319:12333   */\n      lt\n        /* \"#utility.yul\":12311:12519   */\n      iszero\n      tag_229\n      jumpi\n        /* \"#utility.yul\":12404:12413   */\n      dup5\n        /* \"#utility.yul\":12399:12402   */\n      dup10\n        /* \"#utility.yul\":12395:12414   */\n      add\n        /* \"#utility.yul\":12389:12415   */\n      mload\n        /* \"#utility.yul\":12381:12387   */\n      dup3\n        /* \"#utility.yul\":12374:12416   */\n      sstore\n        /* \"#utility.yul\":12455:12456   */\n      0x01\n        /* \"#utility.yul\":12447:12453   */\n      dup3\n        /* \"#utility.yul\":12443:12457   */\n      add\n        /* \"#utility.yul\":12433:12457   */\n      swap2\n      pop\n        /* \"#utility.yul\":12502:12504   */\n      0x20\n        /* \"#utility.yul\":12491:12500   */\n      dup6\n        /* \"#utility.yul\":12487:12505   */\n      add\n        /* \"#utility.yul\":12474:12505   */\n      swap5\n      pop\n        /* \"#utility.yul\":12348:12352   */\n      0x20\n        /* \"#utility.yul\":12345:12346   */\n      dup2\n        /* \"#utility.yul\":12341:12353   */\n      add\n        /* \"#utility.yul\":12336:12353   */\n      swap1\n      pop\n        /* \"#utility.yul\":12311:12519   */\n      jump(tag_227)\n    tag_229:\n        /* \"#utility.yul\":12547:12553   */\n      dup7\n        /* \"#utility.yul\":12538:12545   */\n      dup4\n        /* \"#utility.yul\":12535:12554   */\n      lt\n        /* \"#utility.yul\":12532:12711   */\n      iszero\n      tag_230\n      jumpi\n        /* \"#utility.yul\":12605:12614   */\n      dup5\n        /* \"#utility.yul\":12600:12603   */\n      dup10\n        /* \"#utility.yul\":12596:12615   */\n      add\n        /* \"#utility.yul\":12590:12616   */\n      mload\n        /* \"#utility.yul\":12648:12696   */\n      tag_231\n        /* \"#utility.yul\":12690:12694   */\n      0x1f\n        /* \"#utility.yul\":12682:12688   */\n      dup10\n        /* \"#utility.yul\":12678:12695   */\n      and\n        /* \"#utility.yul\":12667:12676   */\n      dup3\n        /* \"#utility.yul\":12648:12696   */\n      tag_83\n      jump\t// in\n    tag_231:\n        /* \"#utility.yul\":12640:12646   */\n      dup4\n        /* \"#utility.yul\":12633:12697   */\n      sstore\n        /* \"#utility.yul\":12555:12711   */\n      pop\n        /* \"#utility.yul\":12532:12711   */\n    tag_230:\n        /* \"#utility.yul\":12757:12758   */\n      0x01\n        /* \"#utility.yul\":12753:12754   */\n      0x02\n        /* \"#utility.yul\":12745:12751   */\n      dup9\n        /* \"#utility.yul\":12741:12755   */\n      mul\n        /* \"#utility.yul\":12737:12759   */\n      add\n        /* \"#utility.yul\":12731:12735   */\n      dup9\n        /* \"#utility.yul\":12724:12760   */\n      sstore\n        /* \"#utility.yul\":12159:12770   */\n      pop\n      pop\n      pop\n        /* \"#utility.yul\":12122:13009   */\n    tag_222:\n      pop\n        /* \"#utility.yul\":11712:13015   */\n      pop\n      pop\n      pop\n        /* \"#utility.yul\":11620:13015   */\n      pop\n      pop\n      jump\t// out\n\n    auxdata: 0xa2646970667358221220a237dc44639598b9ec6993810a7be808c66e2d6abfb0db2f1a00e0eae5dfe4ca64736f6c634300081a0033\n}\n",
				"bytecode": {
					"linkReferences": {},
					"object": "6080604052348015600e575f80fd5b50610ad18061001c5f395ff3fe608060405234801561000f575f80fd5b506004361061004a575f3560e01c80631f16653b1461004e57806329507f731461006c5780637acc0b20146100885780638c96091b146100ba575b5f80fd5b6100566100d6565b6040516100639190610378565b60405180910390f35b61008660048036038101906100819190610426565b6100dc565b005b6100a2600480360381019061009d9190610464565b6101d1565b6040516100b19392919061050e565b60405180910390f35b6100d460048036038101906100cf9190610676565b61029b565b005b60015481565b3373ffffffffffffffffffffffffffffffffffffffff165f808481526020019081526020015f206001015f9054906101000a900473ffffffffffffffffffffffffffffffffffffffff1673ffffffffffffffffffffffffffffffffffffffff161461017c576040517f08c379a000000000000000000000000000000000000000000000000000000000815260040161017390610740565b60405180910390fd5b805f808481526020019081526020015f206001015f6101000a81548173ffffffffffffffffffffffffffffffffffffffff021916908373ffffffffffffffffffffffffffffffffffffffff1602179055505050565b5f602052805f5260405f205f91509050805f0180546101ef9061078b565b80601f016020809104026020016040519081016040528092919081815260200182805461021b9061078b565b80156102665780601f1061023d57610100808354040283529160200191610266565b820191905f5260205f20905b81548152906001019060200180831161024957829003601f168201915b505050505090806001015f9054906101000a900473ffffffffffffffffffffffffffffffffffffffff16908060020154905083565b60015f8154809291906102ad906107e8565b919050555060405180606001604052808381526020013373ffffffffffffffffffffffffffffffffffffffff168152602001828152505f8060015481526020019081526020015f205f820151815f01908161030891906109cc565b506020820151816001015f6101000a81548173ffffffffffffffffffffffffffffffffffffffff021916908373ffffffffffffffffffffffffffffffffffffffff160217905550604082015181600201559050505050565b5f819050919050565b61037281610360565b82525050565b5f60208201905061038b5f830184610369565b92915050565b5f604051905090565b5f80fd5b5f80fd5b6103ab81610360565b81146103b5575f80fd5b50565b5f813590506103c6816103a2565b92915050565b5f73ffffffffffffffffffffffffffffffffffffffff82169050919050565b5f6103f5826103cc565b9050919050565b610405816103eb565b811461040f575f80fd5b50565b5f81359050610420816103fc565b92915050565b5f806040838503121561043c5761043b61039a565b5b5f610449858286016103b8565b925050602061045a85828601610412565b9150509250929050565b5f602082840312156104795761047861039a565b5b5f610486848285016103b8565b91505092915050565b5f81519050919050565b5f82825260208201905092915050565b8281835e5f83830152505050565b5f601f19601f8301169050919050565b5f6104d18261048f565b6104db8185610499565b93506104eb8185602086016104a9565b6104f4816104b7565b840191505092915050565b610508816103eb565b82525050565b5f6060820190508181035f83015261052681866104c7565b905061053560208301856104ff565b6105426040830184610369565b949350505050565b5f80fd5b5f80fd5b7f4e487b71000000000000000000000000000000000000000000000000000000005f52604160045260245ffd5b610588826104b7565b810181811067ffffffffffffffff821117156105a7576105a6610552565b5b80604052505050565b5f6105b9610391565b90506105c5828261057f565b919050565b5f67ffffffffffffffff8211156105e4576105e3610552565b5b6105ed826104b7565b9050602081019050919050565b828183375f83830152505050565b5f61061a610615846105ca565b6105b0565b9050828152602081018484840111156106365761063561054e565b5b6106418482856105fa565b509392505050565b5f82601f83011261065d5761065c61054a565b5b813561066d848260208601610608565b91505092915050565b5f806040838503121561068c5761068b61039a565b5b5f83013567ffffffffffffffff8111156106a9576106a861039e565b5b6106b585828601610649565b92505060206106c6858286016103b8565b9150509250929050565b7f4f6e6c7920746865206f776e65722063616e207472616e73666572206f776e655f8201527f7273686970000000000000000000000000000000000000000000000000000000602082015250565b5f61072a602583610499565b9150610735826106d0565b604082019050919050565b5f6020820190508181035f8301526107578161071e565b9050919050565b7f4e487b71000000000000000000000000000000000000000000000000000000005f52602260045260245ffd5b5f60028204905060018216806107a257607f821691505b6020821081036107b5576107b461075e565b5b50919050565b7f4e487b71000000000000000000000000000000000000000000000000000000005f52601160045260245ffd5b5f6107f282610360565b91507fffffffffffffffffffffffffffffffffffffffffffffffffffffffffffffffff8203610824576108236107bb565b5b600182019050919050565b5f819050815f5260205f209050919050565b5f6020601f8301049050919050565b5f82821b905092915050565b5f6008830261088b7fffffffffffffffffffffffffffffffffffffffffffffffffffffffffffffffff82610850565b6108958683610850565b95508019841693508086168417925050509392505050565b5f819050919050565b5f6108d06108cb6108c684610360565b6108ad565b610360565b9050919050565b5f819050919050565b6108e9836108b6565b6108fd6108f5826108d7565b84845461085c565b825550505050565b5f90565b610911610905565b61091c8184846108e0565b505050565b5b8181101561093f576109345f82610909565b600181019050610922565b5050565b601f821115610984576109558161082f565b61095e84610841565b8101602085101561096d578190505b61098161097985610841565b830182610921565b50505b505050565b5f82821c905092915050565b5f6109a45f1984600802610989565b1980831691505092915050565b5f6109bc8383610995565b9150826002028217905092915050565b6109d58261048f565b67ffffffffffffffff8111156109ee576109ed610552565b5b6109f8825461078b565b610a03828285610943565b5f60209050601f831160018114610a34575f8415610a22578287015190505b610a2c85826109b1565b865550610a93565b601f198416610a428661082f565b5f5b82811015610a6957848901518255600182019150602085019450602081019050610a44565b86831015610a865784890151610a82601f891682610995565b8355505b6001600288020188555050505b50505050505056fea2646970667358221220a237dc44639598b9ec6993810a7be808c66e2d6abfb0db2f1a00e0eae5dfe4ca64736f6c634300081a0033",
					"opcodes": "PUSH1 0x80 PUSH1 0x40 MSTORE CALLVALUE DUP1 ISZERO PUSH1 0xE JUMPI PUSH0 DUP1 REVERT JUMPDEST POP PUSH2 0xAD1 DUP1 PUSH2 0x1C PUSH0 CODECOPY PUSH0 RETURN INVALID PUSH1 0x80 PUSH1 0x40 MSTORE CALLVALUE DUP1 ISZERO PUSH2 0xF JUMPI PUSH0 DUP1 REVERT JUMPDEST POP PUSH1 0x4 CALLDATASIZE LT PUSH2 0x4A JUMPI PUSH0 CALLDATALOAD PUSH1 0xE0 SHR DUP1 PUSH4 0x1F16653B EQ PUSH2 0x4E JUMPI DUP1 PUSH4 0x29507F73 EQ PUSH2 0x6C JUMPI DUP1 PUSH4 0x7ACC0B20 EQ PUSH2 0x88 JUMPI DUP1 PUSH4 0x8C96091B EQ PUSH2 0xBA JUMPI JUMPDEST PUSH0 DUP1 REVERT JUMPDEST PUSH2 0x56 PUSH2 0xD6 JUMP JUMPDEST PUSH1 0x40 MLOAD PUSH2 0x63 SWAP2 SWAP1 PUSH2 0x378 JUMP JUMPDEST PUSH1 0x40 MLOAD DUP1 SWAP2 SUB SWAP1 RETURN JUMPDEST PUSH2 0x86 PUSH1 0x4 DUP1 CALLDATASIZE SUB DUP2 ADD SWAP1 PUSH2 0x81 SWAP2 SWAP1 PUSH2 0x426 JUMP JUMPDEST PUSH2 0xDC JUMP JUMPDEST STOP JUMPDEST PUSH2 0xA2 PUSH1 0x4 DUP1 CALLDATASIZE SUB DUP2 ADD SWAP1 PUSH2 0x9D SWAP2 SWAP1 PUSH2 0x464 JUMP JUMPDEST PUSH2 0x1D1 JUMP JUMPDEST PUSH1 0x40 MLOAD PUSH2 0xB1 SWAP4 SWAP3 SWAP2 SWAP1 PUSH2 0x50E JUMP JUMPDEST PUSH1 0x40 MLOAD DUP1 SWAP2 SUB SWAP1 RETURN JUMPDEST PUSH2 0xD4 PUSH1 0x4 DUP1 CALLDATASIZE SUB DUP2 ADD SWAP1 PUSH2 0xCF SWAP2 SWAP1 PUSH2 0x676 JUMP JUMPDEST PUSH2 0x29B JUMP JUMPDEST STOP JUMPDEST PUSH1 0x1 SLOAD DUP2 JUMP JUMPDEST CALLER PUSH20 0xFFFFFFFFFFFFFFFFFFFFFFFFFFFFFFFFFFFFFFFF AND PUSH0 DUP1 DUP5 DUP2 MSTORE PUSH1 0x20 ADD SWAP1 DUP2 MSTORE PUSH1 0x20 ADD PUSH0 KECCAK256 PUSH1 0x1 ADD PUSH0 SWAP1 SLOAD SWAP1 PUSH2 0x100 EXP SWAP1 DIV PUSH20 0xFFFFFFFFFFFFFFFFFFFFFFFFFFFFFFFFFFFFFFFF AND PUSH20 0xFFFFFFFFFFFFFFFFFFFFFFFFFFFFFFFFFFFFFFFF AND EQ PUSH2 0x17C JUMPI PUSH1 0x40 MLOAD PUSH32 0x8C379A000000000000000000000000000000000000000000000000000000000 DUP2 MSTORE PUSH1 0x4 ADD PUSH2 0x173 SWAP1 PUSH2 0x740 JUMP JUMPDEST PUSH1 0x40 MLOAD DUP1 SWAP2 SUB SWAP1 REVERT JUMPDEST DUP1 PUSH0 DUP1 DUP5 DUP2 MSTORE PUSH1 0x20 ADD SWAP1 DUP2 MSTORE PUSH1 0x20 ADD PUSH0 KECCAK256 PUSH1 0x1 ADD PUSH0 PUSH2 0x100 EXP DUP2 SLOAD DUP2 PUSH20 0xFFFFFFFFFFFFFFFFFFFFFFFFFFFFFFFFFFFFFFFF MUL NOT AND SWAP1 DUP4 PUSH20 0xFFFFFFFFFFFFFFFFFFFFFFFFFFFFFFFFFFFFFFFF AND MUL OR SWAP1 SSTORE POP POP POP JUMP JUMPDEST PUSH0 PUSH1 0x20 MSTORE DUP1 PUSH0 MSTORE PUSH1 0x40 PUSH0 KECCAK256 PUSH0 SWAP2 POP SWAP1 POP DUP1 PUSH0 ADD DUP1 SLOAD PUSH2 0x1EF SWAP1 PUSH2 0x78B JUMP JUMPDEST DUP1 PUSH1 0x1F ADD PUSH1 0x20 DUP1 SWAP2 DIV MUL PUSH1 0x20 ADD PUSH1 0x40 MLOAD SWAP1 DUP2 ADD PUSH1 0x40 MSTORE DUP1 SWAP3 SWAP2 SWAP1 DUP2 DUP2 MSTORE PUSH1 0x20 ADD DUP3 DUP1 SLOAD PUSH2 0x21B SWAP1 PUSH2 0x78B JUMP JUMPDEST DUP1 ISZERO PUSH2 0x266 JUMPI DUP1 PUSH1 0x1F LT PUSH2 0x23D JUMPI PUSH2 0x100 DUP1 DUP4 SLOAD DIV MUL DUP4 MSTORE SWAP2 PUSH1 0x20 ADD SWAP2 PUSH2 0x266 JUMP JUMPDEST DUP3 ADD SWAP2 SWAP1 PUSH0 MSTORE PUSH1 0x20 PUSH0 KECCAK256 SWAP1 JUMPDEST DUP2 SLOAD DUP2 MSTORE SWAP1 PUSH1 0x1 ADD SWAP1 PUSH1 0x20 ADD DUP1 DUP4 GT PUSH2 0x249 JUMPI DUP3 SWAP1 SUB PUSH1 0x1F AND DUP3 ADD SWAP2 JUMPDEST POP POP POP POP POP SWAP1 DUP1 PUSH1 0x1 ADD PUSH0 SWAP1 SLOAD SWAP1 PUSH2 0x100 EXP SWAP1 DIV PUSH20 0xFFFFFFFFFFFFFFFFFFFFFFFFFFFFFFFFFFFFFFFF AND SWAP1 DUP1 PUSH1 0x2 ADD SLOAD SWAP1 POP DUP4 JUMP JUMPDEST PUSH1 0x1 PUSH0 DUP2 SLOAD DUP1 SWAP3 SWAP2 SWAP1 PUSH2 0x2AD SWAP1 PUSH2 0x7E8 JUMP JUMPDEST SWAP2 SWAP1 POP SSTORE POP PUSH1 0x40 MLOAD DUP1 PUSH1 0x60 ADD PUSH1 0x40 MSTORE DUP1 DUP4 DUP2 MSTORE PUSH1 0x20 ADD CALLER PUSH20 0xFFFFFFFFFFFFFFFFFFFFFFFFFFFFFFFFFFFFFFFF AND DUP2 MSTORE PUSH1 0x20 ADD DUP3 DUP2 MSTORE POP PUSH0 DUP1 PUSH1 0x1 SLOAD DUP2 MSTORE PUSH1 0x20 ADD SWAP1 DUP2 MSTORE PUSH1 0x20 ADD PUSH0 KECCAK256 PUSH0 DUP3 ADD MLOAD DUP2 PUSH0 ADD SWAP1 DUP2 PUSH2 0x308 SWAP2 SWAP1 PUSH2 0x9CC JUMP JUMPDEST POP PUSH1 0x20 DUP3 ADD MLOAD DUP2 PUSH1 0x1 ADD PUSH0 PUSH2 0x100 EXP DUP2 SLOAD DUP2 PUSH20 0xFFFFFFFFFFFFFFFFFFFFFFFFFFFFFFFFFFFFFFFF MUL NOT AND SWAP1 DUP4 PUSH20 0xFFFFFFFFFFFFFFFFFFFFFFFFFFFFFFFFFFFFFFFF AND MUL OR SWAP1 SSTORE POP PUSH1 0x40 DUP3 ADD MLOAD DUP2 PUSH1 0x2 ADD SSTORE SWAP1 POP POP POP POP JUMP JUMPDEST PUSH0 DUP2 SWAP1 POP SWAP2 SWAP1 POP JUMP JUMPDEST PUSH2 0x372 DUP2 PUSH2 0x360 JUMP JUMPDEST DUP3 MSTORE POP POP JUMP JUMPDEST PUSH0 PUSH1 0x20 DUP3 ADD SWAP1 POP PUSH2 0x38B PUSH0 DUP4 ADD DUP5 PUSH2 0x369 JUMP JUMPDEST SWAP3 SWAP2 POP POP JUMP JUMPDEST PUSH0 PUSH1 0x40 MLOAD SWAP1 POP SWAP1 JUMP JUMPDEST PUSH0 DUP1 REVERT JUMPDEST PUSH0 DUP1 REVERT JUMPDEST PUSH2 0x3AB DUP2 PUSH2 0x360 JUMP JUMPDEST DUP2 EQ PUSH2 0x3B5 JUMPI PUSH0 DUP1 REVERT JUMPDEST POP JUMP JUMPDEST PUSH0 DUP2 CALLDATALOAD SWAP1 POP PUSH2 0x3C6 DUP2 PUSH2 0x3A2 JUMP JUMPDEST SWAP3 SWAP2 POP POP JUMP JUMPDEST PUSH0 PUSH20 0xFFFFFFFFFFFFFFFFFFFFFFFFFFFFFFFFFFFFFFFF DUP3 AND SWAP1 POP SWAP2 SWAP1 POP JUMP JUMPDEST PUSH0 PUSH2 0x3F5 DUP3 PUSH2 0x3CC JUMP JUMPDEST SWAP1 POP SWAP2 SWAP1 POP JUMP JUMPDEST PUSH2 0x405 DUP2 PUSH2 0x3EB JUMP JUMPDEST DUP2 EQ PUSH2 0x40F JUMPI PUSH0 DUP1 REVERT JUMPDEST POP JUMP JUMPDEST PUSH0 DUP2 CALLDATALOAD SWAP1 POP PUSH2 0x420 DUP2 PUSH2 0x3FC JUMP JUMPDEST SWAP3 SWAP2 POP POP JUMP JUMPDEST PUSH0 DUP1 PUSH1 0x40 DUP4 DUP6 SUB SLT ISZERO PUSH2 0x43C JUMPI PUSH2 0x43B PUSH2 0x39A JUMP JUMPDEST JUMPDEST PUSH0 PUSH2 0x449 DUP6 DUP3 DUP7 ADD PUSH2 0x3B8 JUMP JUMPDEST SWAP3 POP POP PUSH1 0x20 PUSH2 0x45A DUP6 DUP3 DUP7 ADD PUSH2 0x412 JUMP JUMPDEST SWAP2 POP POP SWAP3 POP SWAP3 SWAP1 POP JUMP JUMPDEST PUSH0 PUSH1 0x20 DUP3 DUP5 SUB SLT ISZERO PUSH2 0x479 JUMPI PUSH2 0x478 PUSH2 0x39A JUMP JUMPDEST JUMPDEST PUSH0 PUSH2 0x486 DUP5 DUP3 DUP6 ADD PUSH2 0x3B8 JUMP JUMPDEST SWAP2 POP POP SWAP3 SWAP2 POP POP JUMP JUMPDEST PUSH0 DUP2 MLOAD SWAP1 POP SWAP2 SWAP1 POP JUMP JUMPDEST PUSH0 DUP3 DUP3 MSTORE PUSH1 0x20 DUP3 ADD SWAP1 POP SWAP3 SWAP2 POP POP JUMP JUMPDEST DUP3 DUP2 DUP4 MCOPY PUSH0 DUP4 DUP4 ADD MSTORE POP POP POP JUMP JUMPDEST PUSH0 PUSH1 0x1F NOT PUSH1 0x1F DUP4 ADD AND SWAP1 POP SWAP2 SWAP1 POP JUMP JUMPDEST PUSH0 PUSH2 0x4D1 DUP3 PUSH2 0x48F JUMP JUMPDEST PUSH2 0x4DB DUP2 DUP6 PUSH2 0x499 JUMP JUMPDEST SWAP4 POP PUSH2 0x4EB DUP2 DUP6 PUSH1 0x20 DUP7 ADD PUSH2 0x4A9 JUMP JUMPDEST PUSH2 0x4F4 DUP2 PUSH2 0x4B7 JUMP JUMPDEST DUP5 ADD SWAP2 POP POP SWAP3 SWAP2 POP POP JUMP JUMPDEST PUSH2 0x508 DUP2 PUSH2 0x3EB JUMP JUMPDEST DUP3 MSTORE POP POP JUMP JUMPDEST PUSH0 PUSH1 0x60 DUP3 ADD SWAP1 POP DUP2 DUP2 SUB PUSH0 DUP4 ADD MSTORE PUSH2 0x526 DUP2 DUP7 PUSH2 0x4C7 JUMP JUMPDEST SWAP1 POP PUSH2 0x535 PUSH1 0x20 DUP4 ADD DUP6 PUSH2 0x4FF JUMP JUMPDEST PUSH2 0x542 PUSH1 0x40 DUP4 ADD DUP5 PUSH2 0x369 JUMP JUMPDEST SWAP5 SWAP4 POP POP POP POP JUMP JUMPDEST PUSH0 DUP1 REVERT JUMPDEST PUSH0 DUP1 REVERT JUMPDEST PUSH32 0x4E487B7100000000000000000000000000000000000000000000000000000000 PUSH0 MSTORE PUSH1 0x41 PUSH1 0x4 MSTORE PUSH1 0x24 PUSH0 REVERT JUMPDEST PUSH2 0x588 DUP3 PUSH2 0x4B7 JUMP JUMPDEST DUP2 ADD DUP2 DUP2 LT PUSH8 0xFFFFFFFFFFFFFFFF DUP3 GT OR ISZERO PUSH2 0x5A7 JUMPI PUSH2 0x5A6 PUSH2 0x552 JUMP JUMPDEST JUMPDEST DUP1 PUSH1 0x40 MSTORE POP POP POP JUMP JUMPDEST PUSH0 PUSH2 0x5B9 PUSH2 0x391 JUMP JUMPDEST SWAP1 POP PUSH2 0x5C5 DUP3 DUP3 PUSH2 0x57F JUMP JUMPDEST SWAP2 SWAP1 POP JUMP JUMPDEST PUSH0 PUSH8 0xFFFFFFFFFFFFFFFF DUP3 GT ISZERO PUSH2 0x5E4 JUMPI PUSH2 0x5E3 PUSH2 0x552 JUMP JUMPDEST JUMPDEST PUSH2 0x5ED DUP3 PUSH2 0x4B7 JUMP JUMPDEST SWAP1 POP PUSH1 0x20 DUP2 ADD SWAP1 POP SWAP2 SWAP1 POP JUMP JUMPDEST DUP3 DUP2 DUP4 CALLDATACOPY PUSH0 DUP4 DUP4 ADD MSTORE POP POP POP JUMP JUMPDEST PUSH0 PUSH2 0x61A PUSH2 0x615 DUP5 PUSH2 0x5CA JUMP JUMPDEST PUSH2 0x5B0 JUMP JUMPDEST SWAP1 POP DUP3 DUP2 MSTORE PUSH1 0x20 DUP2 ADD DUP5 DUP5 DUP5 ADD GT ISZERO PUSH2 0x636 JUMPI PUSH2 0x635 PUSH2 0x54E JUMP JUMPDEST JUMPDEST PUSH2 0x641 DUP5 DUP3 DUP6 PUSH2 0x5FA JUMP JUMPDEST POP SWAP4 SWAP3 POP POP POP JUMP JUMPDEST PUSH0 DUP3 PUSH1 0x1F DUP4 ADD SLT PUSH2 0x65D JUMPI PUSH2 0x65C PUSH2 0x54A JUMP JUMPDEST JUMPDEST DUP2 CALLDATALOAD PUSH2 0x66D DUP5 DUP3 PUSH1 0x20 DUP7 ADD PUSH2 0x608 JUMP JUMPDEST SWAP2 POP POP SWAP3 SWAP2 POP POP JUMP JUMPDEST PUSH0 DUP1 PUSH1 0x40 DUP4 DUP6 SUB SLT ISZERO PUSH2 0x68C JUMPI PUSH2 0x68B PUSH2 0x39A JUMP JUMPDEST JUMPDEST PUSH0 DUP4 ADD CALLDATALOAD PUSH8 0xFFFFFFFFFFFFFFFF DUP2 GT ISZERO PUSH2 0x6A9 JUMPI PUSH2 0x6A8 PUSH2 0x39E JUMP JUMPDEST JUMPDEST PUSH2 0x6B5 DUP6 DUP3 DUP7 ADD PUSH2 0x649 JUMP JUMPDEST SWAP3 POP POP PUSH1 0x20 PUSH2 0x6C6 DUP6 DUP3 DUP7 ADD PUSH2 0x3B8 JUMP JUMPDEST SWAP2 POP POP SWAP3 POP SWAP3 SWAP1 POP JUMP JUMPDEST PUSH32 0x4F6E6C7920746865206F776E65722063616E207472616E73666572206F776E65 PUSH0 DUP3 ADD MSTORE PUSH32 0x7273686970000000000000000000000000000000000000000000000000000000 PUSH1 0x20 DUP3 ADD MSTORE POP JUMP JUMPDEST PUSH0 PUSH2 0x72A PUSH1 0x25 DUP4 PUSH2 0x499 JUMP JUMPDEST SWAP2 POP PUSH2 0x735 DUP3 PUSH2 0x6D0 JUMP JUMPDEST PUSH1 0x40 DUP3 ADD SWAP1 POP SWAP2 SWAP1 POP JUMP JUMPDEST PUSH0 PUSH1 0x20 DUP3 ADD SWAP1 POP DUP2 DUP2 SUB PUSH0 DUP4 ADD MSTORE PUSH2 0x757 DUP2 PUSH2 0x71E JUMP JUMPDEST SWAP1 POP SWAP2 SWAP1 POP JUMP JUMPDEST PUSH32 0x4E487B7100000000000000000000000000000000000000000000000000000000 PUSH0 MSTORE PUSH1 0x22 PUSH1 0x4 MSTORE PUSH1 0x24 PUSH0 REVERT JUMPDEST PUSH0 PUSH1 0x2 DUP3 DIV SWAP1 POP PUSH1 0x1 DUP3 AND DUP1 PUSH2 0x7A2 JUMPI PUSH1 0x7F DUP3 AND SWAP2 POP JUMPDEST PUSH1 0x20 DUP3 LT DUP2 SUB PUSH2 0x7B5 JUMPI PUSH2 0x7B4 PUSH2 0x75E JUMP JUMPDEST JUMPDEST POP SWAP2 SWAP1 POP JUMP JUMPDEST PUSH32 0x4E487B7100000000000000000000000000000000000000000000000000000000 PUSH0 MSTORE PUSH1 0x11 PUSH1 0x4 MSTORE PUSH1 0x24 PUSH0 REVERT JUMPDEST PUSH0 PUSH2 0x7F2 DUP3 PUSH2 0x360 JUMP JUMPDEST SWAP2 POP PUSH32 0xFFFFFFFFFFFFFFFFFFFFFFFFFFFFFFFFFFFFFFFFFFFFFFFFFFFFFFFFFFFFFFFF DUP3 SUB PUSH2 0x824 JUMPI PUSH2 0x823 PUSH2 0x7BB JUMP JUMPDEST JUMPDEST PUSH1 0x1 DUP3 ADD SWAP1 POP SWAP2 SWAP1 POP JUMP JUMPDEST PUSH0 DUP2 SWAP1 POP DUP2 PUSH0 MSTORE PUSH1 0x20 PUSH0 KECCAK256 SWAP1 POP SWAP2 SWAP1 POP JUMP JUMPDEST PUSH0 PUSH1 0x20 PUSH1 0x1F DUP4 ADD DIV SWAP1 POP SWAP2 SWAP1 POP JUMP JUMPDEST PUSH0 DUP3 DUP3 SHL SWAP1 POP SWAP3 SWAP2 POP POP JUMP JUMPDEST PUSH0 PUSH1 0x8 DUP4 MUL PUSH2 0x88B PUSH32 0xFFFFFFFFFFFFFFFFFFFFFFFFFFFFFFFFFFFFFFFFFFFFFFFFFFFFFFFFFFFFFFFF DUP3 PUSH2 0x850 JUMP JUMPDEST PUSH2 0x895 DUP7 DUP4 PUSH2 0x850 JUMP JUMPDEST SWAP6 POP DUP1 NOT DUP5 AND SWAP4 POP DUP1 DUP7 AND DUP5 OR SWAP3 POP POP POP SWAP4 SWAP3 POP POP POP JUMP JUMPDEST PUSH0 DUP2 SWAP1 POP SWAP2 SWAP1 POP JUMP JUMPDEST PUSH0 PUSH2 0x8D0 PUSH2 0x8CB PUSH2 0x8C6 DUP5 PUSH2 0x360 JUMP JUMPDEST PUSH2 0x8AD JUMP JUMPDEST PUSH2 0x360 JUMP JUMPDEST SWAP1 POP SWAP2 SWAP1 POP JUMP JUMPDEST PUSH0 DUP2 SWAP1 POP SWAP2 SWAP1 POP JUMP JUMPDEST PUSH2 0x8E9 DUP4 PUSH2 0x8B6 JUMP JUMPDEST PUSH2 0x8FD PUSH2 0x8F5 DUP3 PUSH2 0x8D7 JUMP JUMPDEST DUP5 DUP5 SLOAD PUSH2 0x85C JUMP JUMPDEST DUP3 SSTORE POP POP POP POP JUMP JUMPDEST PUSH0 SWAP1 JUMP JUMPDEST PUSH2 0x911 PUSH2 0x905 JUMP JUMPDEST PUSH2 0x91C DUP2 DUP5 DUP5 PUSH2 0x8E0 JUMP JUMPDEST POP POP POP JUMP JUMPDEST JUMPDEST DUP2 DUP2 LT ISZERO PUSH2 0x93F JUMPI PUSH2 0x934 PUSH0 DUP3 PUSH2 0x909 JUMP JUMPDEST PUSH1 0x1 DUP2 ADD SWAP1 POP PUSH2 0x922 JUMP JUMPDEST POP POP JUMP JUMPDEST PUSH1 0x1F DUP3 GT ISZERO PUSH2 0x984 JUMPI PUSH2 0x955 DUP2 PUSH2 0x82F JUMP JUMPDEST PUSH2 0x95E DUP5 PUSH2 0x841 JUMP JUMPDEST DUP2 ADD PUSH1 0x20 DUP6 LT ISZERO PUSH2 0x96D JUMPI DUP2 SWAP1 POP JUMPDEST PUSH2 0x981 PUSH2 0x979 DUP6 PUSH2 0x841 JUMP JUMPDEST DUP4 ADD DUP3 PUSH2 0x921 JUMP JUMPDEST POP POP JUMPDEST POP POP POP JUMP JUMPDEST PUSH0 DUP3 DUP3 SHR SWAP1 POP SWAP3 SWAP2 POP POP JUMP JUMPDEST PUSH0 PUSH2 0x9A4 PUSH0 NOT DUP5 PUSH1 0x8 MUL PUSH2 0x989 JUMP JUMPDEST NOT DUP1 DUP4 AND SWAP2 POP POP SWAP3 SWAP2 POP POP JUMP JUMPDEST PUSH0 PUSH2 0x9BC DUP4 DUP4 PUSH2 0x995 JUMP JUMPDEST SWAP2 POP DUP3 PUSH1 0x2 MUL DUP3 OR SWAP1 POP SWAP3 SWAP2 POP POP JUMP JUMPDEST PUSH2 0x9D5 DUP3 PUSH2 0x48F JUMP JUMPDEST PUSH8 0xFFFFFFFFFFFFFFFF DUP2 GT ISZERO PUSH2 0x9EE JUMPI PUSH2 0x9ED PUSH2 0x552 JUMP JUMPDEST JUMPDEST PUSH2 0x9F8 DUP3 SLOAD PUSH2 0x78B JUMP JUMPDEST PUSH2 0xA03 DUP3 DUP3 DUP6 PUSH2 0x943 JUMP JUMPDEST PUSH0 PUSH1 0x20 SWAP1 POP PUSH1 0x1F DUP4 GT PUSH1 0x1 DUP2 EQ PUSH2 0xA34 JUMPI PUSH0 DUP5 ISZERO PUSH2 0xA22 JUMPI DUP3 DUP8 ADD MLOAD SWAP1 POP JUMPDEST PUSH2 0xA2C DUP6 DUP3 PUSH2 0x9B1 JUMP JUMPDEST DUP7 SSTORE POP PUSH2 0xA93 JUMP JUMPDEST PUSH1 0x1F NOT DUP5 AND PUSH2 0xA42 DUP7 PUSH2 0x82F JUMP JUMPDEST PUSH0 JUMPDEST DUP3 DUP2 LT ISZERO PUSH2 0xA69 JUMPI DUP5 DUP10 ADD MLOAD DUP3 SSTORE PUSH1 0x1 DUP3 ADD SWAP2 POP PUSH1 0x20 DUP6 ADD SWAP5 POP PUSH1 0x20 DUP2 ADD SWAP1 POP PUSH2 0xA44 JUMP JUMPDEST DUP7 DUP4 LT ISZERO PUSH2 0xA86 JUMPI DUP5 DUP10 ADD MLOAD PUSH2 0xA82 PUSH1 0x1F DUP10 AND DUP3 PUSH2 0x995 JUMP JUMPDEST DUP4 SSTORE POP JUMPDEST PUSH1 0x1 PUSH1 0x2 DUP9 MUL ADD DUP9 SSTORE POP POP POP JUMPDEST POP POP POP POP POP POP JUMP INVALID LOG2 PUSH5 0x6970667358 0x22 SLT KECCAK256 LOG2 CALLDATACOPY 0xDC PREVRANDAO PUSH4 0x9598B9EC PUSH10 0x93810A7BE808C66E2D6A 0xBF 0xB0 0xDB 0x2F BYTE STOP 0xE0 0xEA 0xE5 0xDF 0xE4 0xCA PUSH5 0x736F6C6343 STOP ADDMOD BYTE STOP CALLER "
				},
				"gasEstimates": {
					"creation": {
						"codeDepositCost": "553800",
						"executionCost": "585",
						"totalCost": "554385"
					},
					"external": {
						"productCounter()": "2403",
						"products(uint256)": "infinite",
						"registerProduct(string,uint256)": "infinite",
						"transferOwnership(uint256,address)": "27219"
					}
				},
				"methodIdentifiers": {
					"productCounter()": "1f16653b",
					"products(uint256)": "7acc0b20",
					"registerProduct(string,uint256)": "8c96091b",
					"transferOwnership(uint256,address)": "29507f73"
				}
			},
			"storageLayout": {
				"storage": [
					{
						"astId": 13,
						"contract": "contracts/trans.sol:OwnershipRegistry",
						"label": "products",
						"offset": 0,
						"slot": "0",
						"type": "t_mapping(t_uint256,t_struct(Product)8_storage)"
					},
					{
						"astId": 15,
						"contract": "contracts/trans.sol:OwnershipRegistry",
						"label": "productCounter",
						"offset": 0,
						"slot": "1",
						"type": "t_uint256"
					}
				],
				"types": {
					"t_address": {
						"encoding": "inplace",
						"label": "address",
						"numberOfBytes": "20"
					},
					"t_mapping(t_uint256,t_struct(Product)8_storage)": {
						"encoding": "mapping",
						"key": "t_uint256",
						"label": "mapping(uint256 => struct OwnershipRegistry.Product)",
						"numberOfBytes": "32",
						"value": "t_struct(Product)8_storage"
					},
					"t_string_storage": {
						"encoding": "bytes",
						"label": "string",
						"numberOfBytes": "32"
					},
					"t_struct(Product)8_storage": {
						"encoding": "inplace",
						"label": "struct OwnershipRegistry.Product",
						"members": [
							{
								"astId": 3,
								"contract": "contracts/trans.sol:OwnershipRegistry",
								"label": "productID",
								"offset": 0,
								"slot": "0",
								"type": "t_string_storage"
							},
							{
								"astId": 5,
								"contract": "contracts/trans.sol:OwnershipRegistry",
								"label": "owner",
								"offset": 0,
								"slot": "1",
								"type": "t_address"
							},
							{
								"astId": 7,
								"contract": "contracts/trans.sol:OwnershipRegistry",
								"label": "price",
								"offset": 0,
								"slot": "2",
								"type": "t_uint256"
							}
						],
						"numberOfBytes": "96"
					},
					"t_uint256": {
						"encoding": "inplace",
						"label": "uint256",
						"numberOfBytes": "32"
					}
				}
			},
			"userdoc": {
				"kind": "user",
				"methods": {},
				"version": 1
			}
		}
	}
}